:020000040000FA
:0600000002EF2CF01200DB
:020006001200E6
:08000800F2A402D081EF20F008
:100010009EA002D0E9EF20F09EA202D046EF21F090
:10002000A1A202D089EF28F09EAA02D021EF23F0EE
:0A0030001200D08EF28EF28C120046
:06003A000700B5590000AB
:10004000C402000002000000B4590000C702000012
:1000500001000000735900004B0200004100000045
:1000600071590000350F0000020000005B590000CC
:10007000AE0200001600000006590000F601000064
:10008000550000005058000000030000B6000000BA
:10009000D9CFE6FFE1CFD9FFE652FE0EDBCFE6FF78
:1000A000010EF36EFD0EDB5004E0D890F336E80647
:1000B000FCE1F350E552E71402E0010E01D0000E1E
:1000C000DF6EDF5000D0E552E552E7CFD9FF1200D6
:1000D000D9CFE6FFE1CFD9FF010EF36EFC0EDB5066
:1000E00004E0D890F336E806FCE1F350146EFD0E00
:1000F000DBCFE9FFFE0EDBCFEAFF1450EF12E55233
:10010000E7CFD9FF1200D9CFE6FFE1CFD9FF010E2B
:10011000F36EFC0EDB5004E0D890F336E806FCE109
:10012000F350E81C146EFD0EDBCFE9FFFE0EDBCFB3
:10013000EAFF1450EF16E552E7CFD9FF1200D9CFEE
:10014000E6FFE1CFD9FF030EE126DF6A010EDF5C97
:1001500001E31ED1DF28E66EDF50B50DF3CFE9FFD6
:10016000F4CFEAFF000EE926030EEA22E552E7503B
:10017000EF6EDF50B50DF3CFE9FFF4CFEAFF000ECD
:10018000E926030EEA22EE52EF6ADF50B50DF3CFF7
:10019000E9FFF4CFEAFF000EE926030EEA22030E80
:1001A000E926000EEA22EE6AED6ADF50B50DF3CFC4
:1001B000E9FFF4CFEAFF000EE926030EEA22050E5E
:1001C000E926000EEA22EF6ADF50B50DF3CFE9FF12
:1001D000F4CFEAFF000EE926030EEA22060EE92616
:1001E000000EEA22EF6ADF50B50DF3CFE9FFF4CF3E
:1001F000EAFF000EE926030EEA22090EE926000EA8
:10020000EA22EF6ADF50B50DF3CFE9FFF4CFEAFF42
:10021000000EE926030EEA220A0EE926000EEA2263
:10022000EF6ADF50B50DF3CFE9FFF4CFEAFF000E20
:10023000E926030EEA22070EE926000EEA22EF6AFB
:10024000DF50B50DF3CFE9FFF4CFEAFF000EE9264A
:10025000030EEA220B0EE926000EEA22EF6ADF50B7
:10026000B50DF3CFE9FFF4CFEAFF000EE926030E48
:10027000EA220C0EE926000EEA22EF6ADF50B50DE5
:10028000F3CFE9FFF4CFEAFF000EE926030EEA22DE
:10029000080EE926000EEA22EF6ADF50B50DF3CF13
:1002A000E9FFF4CFEAFF000EE926030EEA22020E70
:1002B000E926000EEA22EF6ADE52380EDD6E010EEC
:1002C000DBCFE6FFE66AE66ADF50B50DF3CFE9FF64
:1002D000F4CFEAFF000EE926030EEA227D0EE9269E
:1002E000000EEA22E9CF14F0EACF15F014C0E6FFC1
:1002F00015C0E6FF34EC2AF0166E050EE15E1650CE
:10030000010EDBCFE6FFE66AE66ADF50B50DF3CFFC
:10031000E9FFF4CFEAFF000EE926030EEA220D0EF4
:10032000E926000EEA22E9CF14F0EACF15F014C056
:10033000E6FF15C0E6FF34EC2AF0166E050EE15E0E
:100340001650010EDBCFE6FFE66AE66ADF50B50D18
:10035000F3CFE9FFF4CFEAFF000EE926030EEA220D
:100360000D0EE926000EEA22E9CF14F0EACF15F0CF
:10037000380E1426000E152214C0E6FF15C0E6FF45
:1003800034EC2AF0166E050EE15E1650DF2ADED63A
:10039000030EE15C02E2E16AE552E16EE552E7CF6D
:1003A000D9FF1200D9CFE6FFE1CFD9FF070EE12632
:1003B000010EF36EFE0EDBCFF4FFF350F45C1EE291
:1003C000FC0EDBCFE9FFFD0EDBCFEAFFEF50146E32
:1003D000156AD890155004E6800E145C000E15586E
:1003E0000DE2FC0EDBCFE9FFFD0EDBCFEAFF020ED4
:1003F000E926000EEA22EE50ED1002E1000EEFD3E6
:10040000FE0EDB50B50DF3CFE9FFF4CFEAFF000E8F
:10041000E926030EEA22EE52E9CF14F0EACF15F0F6
:10042000050E14C0DBFF060E15C0DBFFFC0EDBCF94
:10043000E9FFFD0EDBCFEAFFEECF14F0EECF15F0B3
:10044000EECF16F0EECF17F0EECF18F0EFCF19F099
:10045000050EDBCFE9FF060EDBCFEAFF14C0EEFF8F
:1004600015C0EEFF16C0EEFF17C0EEFF18C0EEFF7E
:1004700019C0EEFFFE0EDB50B50DF3CFE9FFF4CF50
:10048000EAFF000EE926030EEA22060EE926000E18
:10049000EA22EF50E66EFE0EDB50B50DF3CFE9FF1A
:1004A000F4CFEAFF000EE926030EEA22070EE92642
:1004B000000EEA22E552E750EF6E380EDF6EDFCF16
:1004C000E6FFE66AE66AFE0EDB50B50DF3CFE9FF04
:1004D000F4CFEAFF000EE926030EEA227D0EE9269C
:1004E000000EEA22E9CF14F0EACF15F014C0E6FFBF
:1004F00015C0E6FF34EC2AF0166E050EE15E1650CC
:10050000DFCFE6FFE66AE66AFE0EDB50B50DF3CFFD
:10051000E9FFF4CFEAFF000EE926030EEA220D0EF2
:10052000E926000EEA22E9CF14F0EACF15F014C054
:10053000E6FF15C0E6FF34EC2AF0166E050EE15E0C
:100540001650DFCFE6FFE66AE66AFE0EDB50B50D19
:10055000F3CFE9FFF4CFEAFF000EE926030EEA220B
:100560000D0EE926000EEA22E9CF14F0EACF15F0CD
:10057000380E1426000E152214C0E6FF15C0E6FF43
:1005800034EC2AF0166E050EE15E1650FE0EDB50BE
:10059000B50DF3CFE9FFF4CFEAFF000EE926030E15
:1005A000EA22060EE926000EEA22EF5001E083D18E
:1005B000FE0EDB50B50DF3CFE9FFF4CFEAFF000EDE
:1005C000E926030EEA22080EE926000EEA22EF6A67
:1005D000DF6AFE0EDB50B50DF3CFE9FFF4CFEAFF83
:1005E000000EE926030EEA22020EE926000EEA2298
:1005F000EF50DF5C01E35ED1FE0EDB50B50DF3CFB3
:10060000E9FFF4CFEAFF000EE926030EEA22080E06
:10061000E926000EEA22EF50EF2A146E156AFE0E4C
:10062000DB50B50DF3CFE9FFF4CFEAFF000EE9266A
:10063000030EEA22030EE926000EEA221450EE24ED
:10064000E76E1550EE20EA6EE7CFE9FFEF50E00FBE
:10065000E76E040EE7CFDBFFDBCF14F014340EE2BD
:10066000040EDBCF15F0630EE76E1518E8AE02D06E
:10067000153403D0E750D880155402E2040EDB6A2B
:10068000FE0EDB50B50DF3CFE9FFF4CFEAFF000E0D
:10069000E926030EEA22080EE926000EEA22EFCF31
:1006A00014F0FE0EDB50B50DF3CFE9FFF4CFEAFFF7
:1006B000000EE926030EEA22050EE926000EEA22C4
:1006C000EF50145C10E3FE0EDB50B50DF3CFE9FFE5
:1006D000F4CFEAFF000EE926030EEA22080EE9260F
:1006E000000EEA22EF6A010EDB6A070EF36E010EBE
:1006F000DBCFF4FFF350F45C01E3DAD0040EDBCF80
:1007000018F0196A18BE1968030ED89018361936F1
:10071000E806FBE1A60E1826390E1922010EDB5061
:100720000F011824F66E000E1920F76E0800F55020
:10073000E66EFE0EDB50B50DF3CFE9FFF4CFEAFF16
:10074000000EE926030EEA227D0EE926000EEA22BB
:10075000E9CF16F0EACF17F0010EDB50080D165066
:10076000F324146E1750F420156EDF500F0114247B
:10077000E96E000E1520EA6EE552E750EF6EFE0EB0
:10078000DB50B50DF3CFE9FFF4CFEAFF000EE92609
:10079000030EEA227D0EE926000EEA22E9CF1AF0C6
:1007A000EACF1BF0010EDB50080D1A50F324186E2F
:1007B0001B50F420196EDF501824E96E000E19202A
:1007C000EA6EEF50E66EFE0EDB50B50DF3CFE9FF9B
:1007D000F4CFEAFF000EE926030EEA220D0EE92609
:1007E000000EEA22E9CF16F0EACF17F0010EDB5037
:1007F000080D1650F324146E1750F420156EDF50B8
:100800001424E96E000E1520EA6EE552E750EF6EF3
:10081000FE0EDB50B50DF3CFE9FFF4CFEAFF000E7B
:10082000E926030EEA227D0EE926000EEA22E9CF30
:100830001AF0EACF1BF0010EDB50080D1A50F3241A
:10084000186E1B50F420196EDF501824E96E000E4C
:100850001920EA6EEF50E66EFE0EDB50B50DF3CFB9
:10086000E9FFF4CFEAFF000EE926030EEA220D0E9F
:10087000E926000EEA22E9CF16F0EACF17F0380E8B
:100880001626000E1722010EDB50080D1650F32419
:10089000146E1750F420156EDF501424E96E000E0C
:1008A0001520EA6EE552E750EF6E010EDB2A1DD7E8
:1008B000DF2A8FD682D1FE0EDB50B50DF3CFE9FFD4
:1008C000F4CFEAFF000EE926030EEA22080EE9261D
:1008D000000EEA22EF6ADF6AFE0EDB50B50DF3CFA1
:1008E000E9FFF4CFEAFF000EE926030EEA22020E2A
:1008F000E926000EEA22EF50DF5C01E35ED1FE0E36
:10090000DB50B50DF3CFE9FFF4CFEAFF000EE92687
:10091000030EEA22080EE926000EEA22EF50EF2A23
:10092000146E156AFE0EDB50B50DF3CFE9FFF4CF60
:10093000EAFF000EE926030EEA22030EE926000E66
:10094000EA221450EE24E76E1550EE20EA6EE7CF4F
:10095000E9FFEF50E00FE76E040EE7CFDBFFDBCFE0
:1009600014F014340EE2040EDBCF15F0630EE76EC4
:100970001518E8AE02D0153403D0E750D8801554CE
:1009800002E2040EDB6AFE0EDB50B50DF3CFE9FF89
:10099000F4CFEAFF000EE926030EEA22080EE9264C
:1009A000000EEA22EFCF14F0FE0EDB50B50DF3CFB0
:1009B000E9FFF4CFEAFF000EE926030EEA22050E56
:1009C000E926000EEA22EF50145C10E3FE0EDB5025
:1009D000B50DF3CFE9FFF4CFEAFF000EE926030ED1
:1009E000EA22080EE926000EEA22EF6A010EDB6A0F
:1009F000070EF36E010EDBCFF4FFF350F45C01E35E
:100A0000DAD0040EDBCF18F0196A18BE1968030E8D
:100A1000D89018361936E806FBE1A60E1826390ECE
:100A20001922010EDB500F011824F66E000E19205A
:100A3000F76E0800F550E66EFE0EDB50B50DF3CFF5
:100A4000E9FFF4CFEAFF000EE926030EEA227D0E4D
:100A5000E926000EEA22E9CF16F0EACF17F0010EE0
:100A6000DB50080D1650F324146E1750F420156E49
:100A7000DF500F011424E96E000E1520EA6EE552D6
:100A8000E750EF6EFE0EDB50B50DF3CFE9FFF4CF6C
:100A9000EAFF000EE926030EEA227D0EE926000E8B
:100AA000EA22E9CF1AF0EACF1BF0010EDB50080D65
:100AB0001A50F324186E1B50F420196EDF501824BE
:100AC000E96E000E1920EA6EEF50E66EFE0EDB5066
:100AD000B50DF3CFE9FFF4CFEAFF000EE926030ED0
:100AE000EA220D0EE926000EEA22E9CF16F0EACF3F
:100AF00017F0010EDB50080D1650F324146E17503A
:100B0000F420156EDF501424E96E000E1520EA6EF5
:100B1000E552E750EF6EFE0EDB50B50DF3CFE9FF67
:100B2000F4CFEAFF000EE926030EEA227D0EE92645
:100B3000000EEA22E9CF1AF0EACF1BF0010EDB50DB
:100B4000080D1A50F324186E1B50F420196EDF5054
:100B50001824E96E000E1920EA6EEF50E66EFE0EC4
:100B6000DB50B50DF3CFE9FFF4CFEAFF000EE92625
:100B7000030EEA220D0EE926000EEA22E9CF16F056
:100B8000EACF17F0380E1626000E1722010EDB50A2
:100B9000080D1650F324146E1750F420156EDF5014
:100BA0001424E96E000E1520EA6EE552E750EF6E50
:100BB000010EDB2A1DD7DF2A8FD6FE0EDB50B50DC6
:100BC000F3CFE9FFF4CFEAFF000EE926030EEA2295
:100BD000080EE926000EEA22EF6A010E00D0146E1C
:100BE000070EE15C02E2E16AE552E16E1450E55263
:100BF000E7CFD9FF1200D9CFE6FFE1CFD9FFFE0E34
:100C0000DB50B50DF3CFE9FFF4CFEAFF000EE92684
:100C1000030EEA22060EE926000EEA22FD0EDBCFC5
:100C2000EFFFFE0EDB50B50DF3CFE9FFF4CFEAFF87
:100C3000000EE926030EEA22070EE926000EEA223C
:100C4000FD0EDBCFEFFFE552E7CFD9FF1200D9CF82
:100C5000E6FFE1CFD9FF020EE126FD0EDB50146E58
:100C6000156AFE0EDB50B50DF3CFE9FFF4CFEAFFB6
:100C7000000EE926030EEA22030EE926000EEA2200
:100C80001450EE24E76E1550EE20EA6EE7CFE9FF30
:100C9000EF50E00FE76E010EE7CFDBFFDF6A070ED4
:100CA000DF5C01E3B1D0010EDB50080DF3CF18F08B
:100CB000F4CF19F0A60E1826390E1922DF500F01B5
:100CC0001824F66E000E1920F76E0800F550E66E37
:100CD000FE0EDB50B50DF3CFE9FFF4CFEAFF000EB7
:100CE000E926030EEA227D0EE926000EEA22E9CF6C
:100CF00016F0EACF17F0DF50080D1650F324146EEB
:100D00001750F420156EFD0EDB500F011424E96E10
:100D1000000E1520EA6EE552E750EF6EDF50080D29
:100D2000F3CF18F0F4CF19F07D0E1826030E192218
:100D3000FD0EDB501824E96E000E1920EA6EEF500C
:100D4000E66EFE0EDB50B50DF3CFE9FFF4CFEAFF00
:100D5000000EE926030EEA220D0EE926000EEA2215
:100D6000E9CF16F0EACF17F0DF50080D1650F32444
:100D7000146E1750F420156EFD0EDB501424E96E2E
:100D8000000E1520EA6EE552E750EF6EDF50080DB9
:100D9000F3CF18F0F4CF19F07D0E1826030E1922A8
:100DA000FD0EDB501824E96E000E1920EA6EEF509C
:100DB000E66EFE0EDB50B50DF3CFE9FFF4CFEAFF90
:100DC000000EE926030EEA220D0EE926000EEA22A5
:100DD000E9CF16F0EACF17F0380E1626000E1722CC
:100DE000DF50080D1650F324146E1750F420156EC2
:100DF000FD0EDB501424E96E000E1520EA6EE5525C
:100E0000E750EF6EDF2A4BD7020EE15C02E2E16AA7
:100E1000E552E16EE552E7CFD9FF1200D9CFE6FFE8
:100E2000E1CFD9FFE652FE0EDB50B50DF3CFE9FF5F
:100E3000F4CFEAFF000EE926030EEA22EE52EF6A33
:100E4000FE0EDB50B50DF3CFE9FFF4CFEAFF000E45
:100E5000E926030EEA22030EE926000EEA22EE6AD4
:100E6000ED6AFE0EDB50B50DF3CFE9FFF4CFEAFFDC
:100E7000000EE926030EEA22050EE926000EEA22FC
:100E8000EF6AFE0EDB50B50DF3CFE9FFF4CFEAFFBA
:100E9000000EE926030EEA22060EE926000EEA22DB
:100EA000EF6AFE0EDB50B50DF3CFE9FFF4CFEAFF9A
:100EB000000EE926030EEA22090EE926000EEA22B8
:100EC000EF6AFE0EDB50B50DF3CFE9FFF4CFEAFF7A
:100ED000000EE926030EEA220A0EE926000EEA2297
:100EE000EF6AFE0EDB50B50DF3CFE9FFF4CFEAFF5A
:100EF000000EE926030EEA22070EE926000EEA227A
:100F0000EF6AFE0EDB50B50DF3CFE9FFF4CFEAFF39
:100F1000000EE926030EEA220B0EE926000EEA2255
:100F2000EF6AFE0EDB50B50DF3CFE9FFF4CFEAFF19
:100F3000000EE926030EEA220C0EE926000EEA2234
:100F4000EF6AFE0EDB50B50DF3CFE9FFF4CFEAFFF9
:100F5000000EE926030EEA22080EE926000EEA2218
:100F6000EF6AFE0EDB50B50DF3CFE9FFF4CFEAFFD9
:100F7000000EE926030EEA22020EE926000EEA22FE
:100F8000EF6A380EDF6EDFCFE6FFE66AE66AFE0E36
:100F9000DB50B50DF3CFE9FFF4CFEAFF000EE926F1
:100FA000030EEA227D0EE926000EEA22E9CF14F0B4
:100FB000EACF15F014C0E6FF15C0E6FF34EC2AF0C6
:100FC000166E050EE15E1650DFCFE6FFE66AE66AB2
:100FD000FE0EDB50B50DF3CFE9FFF4CFEAFF000EB4
:100FE000E926030EEA220D0EE926000EEA22E9CFD9
:100FF00014F0EACF15F014C0E6FF15C0E6FF34EC9C
:101000002AF0166E050EE15E1650DFCFE6FFE66AA7
:10101000E66AFE0EDB50B50DF3CFE9FFF4CFEAFF31
:10102000000EE926030EEA220D0EE926000EEA2242
:10103000E9CF14F0EACF15F0380E1426000E152271
:1010400014C0E6FF15C0E6FF34EC2AF0166E050E5C
:10105000E15E1650E552E552E7CFD9FF1200D9CF35
:10106000E6FFE1CFD9FF050EE126DF6A010EDF5C66
:1010700001E3BBD3DF50B50DF3CFE9FFF4CFEAFFB7
:10108000000EE926030EEA22060EE926000EEA22E9
:10109000EF5021E0DF50B50DF3CFE9FFF4CFEAFFC9
:1010A000000EE926030EEA22070EE926000EEA22C8
:1010B000EF06DF50B50DF3CFE9FFF4CFEAFF000EE6
:1010C000E926030EEA22070EE926000EEA22EF5077
:1010D000000801E288D3DF50B50DF3CFE9FFF4CF6C
:1010E000EAFF000EE926030EEA22060EE926000EAC
:1010F000EA22EF50E66EDF50B50DF3CFE9FFF4CFF3
:10110000EAFF000EE926030EEA22070EE926000E8A
:10111000EA22E552E750EF6E9D90DF50B50DF3CF18
:10112000E9FFF4CFEAFF000EE926030EEA22090EDA
:10113000E926000EEA22EF5025E1DF50B50DF3CF8E
:10114000E9FFF4CFEAFF000EE926030EEA220C0EB7
:10115000E926000EEA22EF5002E1010E01D0000E56
:10116000E66EDF50B50DF3CFE9FFF4CFEAFF000ED6
:10117000E926030EEA220B0EE926000EEA22E552CA
:10118000E750EF6EDF50B50DF3CFE9FFF4CFEAFF84
:10119000000EE926030EEA22090EE926000EEA22D5
:1011A000EF0402E19D801FD39D80DF50B50DF3CF8A
:1011B000E9FFF4CFEAFF000EE926030EEA22060E4D
:1011C000E926000EEA22EF5001E1FBD2010EDB6AB4
:1011D000070EF36E010EDBCFF4FFF350F45C01E376
:1011E00080D2010EF36E020EF3CFDBFFDF50B50DA0
:1011F000F3CFE9FFF4CFEAFF000EE926030EEA225F
:10120000020EE926000EEA22EF50F36E020EDBCF4B
:10121000F4FFF350F45C01E311D1DF50B50DF3CFCF
:10122000E9FFF4CFEAFF000EE926030EEA227D0E65
:10123000E926000EEA22E9CF16F0EACF17F0010EF8
:10124000DB50080D1650F324146E1750F420156E61
:10125000020EDB040F011424E96E000E1520EA6E65
:10126000EF9EEF46070EE66EDF50B50DF3CFE9FFB8
:10127000F4CFEAFF000EE926030EEA227D0EE926EE
:10128000000EEA22E9CF16F0EACF17F0010EDB508C
:10129000080D1650F324146E1750F420156E020E2C
:1012A000DB501424E96E000E1520EA6EEF50E66E56
:1012B00048EC00F0E552E55201082FE1030EE66E1E
:1012C000DF50B50DF3CFE9FFF4CFEAFF000EE926BA
:1012D000030EEA227D0EE926000EEA22E9CF18F07D
:1012E000EACF19F0010EDB50080D1850F324166EEA
:1012F0001950F420176E020EDB0400011624146E40
:10130000000E1720156E14C0E6FF15C0E6FF68EC4E
:1013100000F0E552E552E5522ED0030EE66EDF50A6
:10132000B50DF3CFE9FFF4CFEAFF000EE926030E77
:10133000EA227D0EE926000EEA22E9CF18F0EACF74
:1013400019F0010EDB50080D1850F324166E1950D9
:10135000F420176E020EDB0400011624146E000E3A
:101360001720156E14C0E6FF15C0E6FF83EC00F0F1
:10137000E552E552E552DF50B50DF3CFE9FFF4CF6A
:10138000EAFF000EE926030EEA227D0EE926000E92
:10139000EA22E9CF1CF0EACF1DF0010EDB50080D68
:1013A0001C50F3241A6E1D50F4201B6E020EDB0439
:1013B0000F011A24E96E000E1B20EA6EEF50E66E54
:1013C000DF50B50DF3CFE9FFF4CFEAFF000EE926B9
:1013D000030EEA220D0EE926000EEA22E9CF18F0EC
:1013E000EACF19F0DF50B50DF3CFE9FFF4CFEAFFF4
:1013F000000EE926030EEA220B0EE926000EEA2271
:10140000EF50380D1850F324166E1950F420176E53
:10141000010EDB50080D1650F324146E1750F42003
:10142000156E020EDB041424E96E000E1520EA6E20
:10143000E552E750EF6E020EDB2AD8D6DF50B50D2D
:10144000F3CFE9FFF4CFEAFF000EE926030EEA220C
:101450007D0EE926000EEA22E9CF16F0EACF17F05A
:10146000010EDB50080D1650F324146E1750F420B3
:10147000156E020EDB040F011424E96E000E152018
:10148000EA6EEF9EEF46DF50B50DF3CFE9FFF4CFE4
:10149000EAFF000EE926030EEA22080EE926000EF6
:1014A000EA22EF50146E156ADF50B50DF3CFE9FF55
:1014B000F4CFEAFF000EE926030EEA22030EE92626
:1014C000000EEA221450EE24E76E1550EE20EA6E6C
:1014D000E7CFE9FFEF50E00FE76E030EE7CFDBFF4A
:1014E000000EF36E030EDBCFF4FFF350F45C04E365
:1014F000030EDB50630802E2030EDB6A030EDB50CF
:10150000080DF3CF14F0F4CF15F0A60E1426390E03
:101510001522010EDB500F011424F66E000E15206B
:10152000F76E0800040EF5CFDBFF070E146EDF50D8
:10153000B50DF3CFE9FFF4CFEAFF000EE926030E65
:10154000EA220A0EE926000EEA22EF50145CE66E4B
:10155000040EDBCFE6FF48EC00F0E552E55201084F
:101560002FE1030EE66EDF50B50DF3CFE9FFF4CFA8
:10157000EAFF000EE926030EEA227D0EE926000EA0
:10158000EA22E9CF18F0EACF19F0010EDB50080D7E
:101590001850F324166E1950F420176E020EDB0457
:1015A00000011624146E000E1720156E14C0E6FFFD
:1015B00015C0E6FF68EC00F0E552E552E5522ED08A
:1015C000030EE66EDF50B50DF3CFE9FFF4CFEAFF6F
:1015D000000EE926030EEA227D0EE926000EEA221D
:1015E000E9CF18F0EACF19F0010EDB50080D1850C2
:1015F000F324166E1950F420176E020EDB0400015E
:101600001624146E000E1720156E14C0E6FF15C0C8
:10161000E6FF83EC00F0E552E552E552DF50B50DF0
:10162000F3CFE9FFF4CFEAFF000EE926030EEA222A
:101630007D0EE926000EEA22E9CF1CF0EACF1DF06C
:10164000010EDB50080D1C50F3241A6E1D50F420BF
:101650001B6E020EDB040F011A24E96E000E1B2024
:10166000EA6EEF50E66EDF50B50DF3CFE9FFF4CF31
:10167000EAFF000EE926030EEA220D0EE926000E0F
:10168000EA22E9CF18F0EACF19F0DF50B50DF3CF19
:10169000E9FFF4CFEAFF000EE926030EEA220B0E63
:1016A000E926000EEA22EF50380D1850F324166E8A
:1016B0001950F420176E010EDB50080D1650F3245C
:1016C000146E1750F420156E020EDB041424E96E1C
:1016D000000E1520EA6EE552E750EF6E010EDB2A90
:1016E00077D5DF50B50DF3CFE9FFF4CFEAFF000E59
:1016F000E926030EEA220A0EE926000EEA22EF2A64
:10170000DF50B50DF3CFE9FFF4CFEAFF000EE92675
:10171000030EEA220A0EE926000EEA22EFCF14F0A9
:10172000050E145C4EE3DF50B50DF3CFE9FFF4CFA7
:10173000EAFF000EE926030EEA22080EE926000E53
:10174000EA22EF2ADF50B50DF3CFE9FFF4CFEAFF2D
:10175000000EE926030EEA22080EE926000EEA2210
:10176000EFCF14F0DF50B50DF3CFE9FFF4CFEAFF70
:10177000000EE926030EEA22050EE926000EEA22F3
:10178000EF50145C0FE3DF50B50DF3CFE9FFF4CF5A
:10179000EAFF000EE926030EEA22080EE926000EF3
:1017A000EA22EF6ADF50B50DF3CFE9FFF4CFEAFF8D
:1017B000000EE926030EEA220A0EE926000EEA22AE
:1017C000EF6A9D90DF50B50DF3CFE9FFF4CFEAFF4C
:1017D000000EE926030EEA22090EE926000EEA228F
:1017E000010EEF6E9D80DF2A41D4050EE15C02E21E
:1017F000E16AE552E16EE552E7CFD9FF1200D9CF99
:10180000E6FFE1CFD9FF040EE1268090809280941C
:1018100080968098809A84908492020EDB6A010EF2
:10182000F36E020EDBCFF4FFF350F45C01E390D0D3
:10183000030EDB6A020EDB50B50DF3CFE9FFF4CFE8
:10184000EAFF000EE926030EEA22020EE926000E48
:10185000EA22EF50F36E030EDBCFF4FFF350F45C9B
:1018600074E2020EDB50B50DF3CFE9FFF4CFEAFFCF
:10187000000EE926030EEA220D0EE926000EEA22EA
:10188000E9CF18F0EACF19F0020EDB50B50DF3CF17
:10189000E9FFF4CFEAFF000EE926030EEA220C0E60
:1018A000E926000EEA22EF50380D1850F324166E88
:1018B0001950F420176E0301B551080D1650F3248A
:1018C000146E1750F420156E030EDB500F01142414
:1018D000E96E000E1520EA6EEFCFDFFF030EDBCFBF
:1018E000E6FF020EDB50B50DF3CFE9FFF4CFEAFFC0
:1018F000000EE926030EEA22EE52EF50E552E724ED
:10190000E76E010EE7CFDBFF400EF36E010EDBCF7B
:10191000F4FFF350F45C0AE3800E146E010EDBCF8B
:10192000E7FF1450E726010EE7CFDBFF010EDB5087
:10193000816EDF1C836E8494100EE66E1DEC2CF01D
:10194000E5528484030EDB2A75D7020EDB2A67D7A3
:101950000301B551070A4EE0010A43E0030A38E0EB
:10196000010A2DE0070A22E0010A17E0030A0CE051
:10197000010A01E048D0808080928094809680980F
:10198000809A849084923FD08090808280948096C8
:101990008098809A8490849236D0809080928084BF
:1019A00080968098809A849084922DD080908092A6
:1019B000809480868098809A8490849224D08090AD
:1019C0008092809480968088809A849084921BD0A4
:1019D00080908092809480968098808A849084926F
:1019E00012D080908092809480968098809A848093
:1019F000849209D080908092809480968098809A7A
:101A00008490848200D0B52BB551070856E2B56B9F
:101A1000020EDB6A010EF36E020EDBCFF4FFF35011
:101A2000F45C4BE2020EDB50B50DF3CFE9FFF4CFCF
:101A3000EAFF000EE926030EEA22090EE926000E4F
:101A4000EA22EF0437E1020EDB50B50DF3CFE9FFD8
:101A5000F4CFEAFF000EE926030EEA220C0EE92677
:101A6000000EEA22EF5002E1010E01D0000EE66EF8
:101A7000020EDB50B50DF3CFE9FFF4CFEAFF000E05
:101A8000E926030EEA220C0EE926000EEA22E552B0
:101A9000E750EF6E020EDB50B50DF3CFE9FFF4CF48
:101AA000EAFF000EE926030EEA22090EE926000EDF
:101AB000EA22EF6A020EDB2AADD7040EE15C02E2F5
:101AC000E16AE552E16EE552E7CFD9FF1200D9CFC6
:101AD000E6FFE1CFD9FF400EF36EFE0EDBCFF4FF41
:101AE000F350F45C0AE3800E146EFE0EDBCFE7FFCA
:101AF0001450E726FE0EE7CFDBFF8484FE0EDB509A
:101B0000816EFD0EDB50836E8494A00EE66E1DEC9C
:0E1B10002CF0E5528484E552E7CFD9FF120095
:021B1E00D9CF1D
:101B2000E6FFE1CFD9FF040EE126020EDB6AFB0ED1
:101B3000DBCFE9FFFC0EDBCFEAFF050EEE1801E17B
:101B4000ED5051E1010EE76EFD0EDBCFE9FFFE0E19
:101B5000DBCFEAFFE750E926000EEA22EF50000E45
:101B6000F350DE6EDD6A020EE76EFD0EDBCFE9FF9D
:101B7000FE0EDBCFEAFFE750E926000EEA22EF5027
:101B8000DF12DF2A010E01E3DB2AE66EE66EE66A6B
:101B9000DECFE6FFDDCFE6FF030EE76EFD0EDBCF07
:101BA00014F0FE0EDBCF15F0E7501426000E1522C0
:101BB00014C0E6FF15C0E6FF9EEC1BF0166E070E84
:101BC000E15E1650E76E030EE7CFDBFFDB500AE065
:101BD000030EDBCFE6FF62EC20F0E552E76E020E6B
:101BE000E7CFDBFF05D0030EF36E020EF3CFDBFF72
:101BF000020EDB50146E040EE15C03E200D0E16AD9
:101C0000E552E16E1450E552E7CFD9FF1200D9CF6B
:101C1000E6FFE1CFD9FF070EE126050EDB6AFB0EDA
:101C2000DBCFE9FFFC0EDBCFEAFFEECF14F0EFCF06
:101C300015F0060E145C000E155801E2CCD0010E12
:101C4000E76EFD0EDBCFE9FFFE0EDBCFEAFFE750CC
:101C5000E926000EEA22EF50000EF350DE6EDD6A38
:101C6000020EE76EFD0EDBCFE9FFFE0EDBCFEAFFD3
:101C7000E750E926000EEA22EF50DF12DF2A010EBC
:101C800001E3DB2A030EE76EFD0EDBCFE9FFFE0E5C
:101C9000DBCFEAFFE750E926000EEA22EF50000E04
:101CA000F350E66ED950020FE96EDACFEAFFE55243
:101CB000E750EE6EED6A040EE76EFD0EDBCFE9FF36
:101CC000FE0EDBCFEAFFE750E926000EEA22EF50D6
:101CD000146E156AD950020FE96EDACFEAFF14507C
:101CE000EE121550ED12050EE76EFD0EDBCFE9FF8B
:101CF000FE0EDBCFEAFFE750E926000EEA22040ED3
:101D0000EFCFDBFF020EDBCF14F0030EDBCF15F0BD
:101D1000010E145C000E155858E3D950020FE96EFD
:101D2000DACFEAFF780ED880EE54000EED544DE382
:101D3000020E086E096ADBCF0DF0030EDBCF0EF04A
:101D40004EEC2BF00650F36E040EDB50F35C3DE1DD
:101D5000010EE66E020EDBCFE6FF030EDBCFE6FFE1
:101D6000DECFE6FFDDCFE6FF060EE76EFD0EDBCF32
:101D700014F0FE0EDBCF15F0E7501426000E1522EE
:101D800014C0E6FF15C0E6FF9EEC1BF0166E070EB2
:101D9000E15E1650E76E060EE7CFDBFFDB500BE08F
:101DA000060EDBCFE6FF62EC20F0E552E76E050E93
:101DB000E7CFDBFF09D0FB0EDBCFE9FFFC0EDBCF6B
:101DC000EAFF050EEE6EED6A05D0030EF36E050E0A
:101DD000F3CFDBFF05D0030EF36E050EF3CFDBFF71
:101DE000DB50146E070EE15C03E200D0E16AE552BD
:101DF000E16E1450E552E7CFD9FF1200D9CFE6FFCC
:101E0000E1CFD9FF080EE126060EDB6AFB0EDBCF21
:101E1000E9FFFC0EDBCFEAFF050EEE1801E1ED5005
:101E200001E0F9D0010EE76EFD0EDBCFE9FFFE0EFB
:101E3000DBCFEAFFE750E926000EEA22EF50000E62
:101E4000F350DE6EDD6A020EE76EFD0EDBCFE9FFBA
:101E5000FE0EDBCFEAFFE750E926000EEA22EF5044
:101E6000DF12DF2A010E01E3DB2A030EE76EFD0E0F
:101E7000DBCFE9FFFE0EDBCFEAFFE750E926000EDD
:101E8000EA22EF50000EF350E66ED950020FE96ED1
:101E9000DACFEAFFE552E750EE6EED6A040EE76E28
:101EA000FD0EDBCFE9FFFE0EDBCFEAFFE750E926B0
:101EB000000EEA22EF50E66ED950020FE96EDACF3B
:101EC000EAFFE552E750EE6EED6A020EDBCF14F04A
:101ED000030EDBCF15F0010E145C000E155801E265
:101EE00094D0D950020FE96EDACFEAFF7D0ED88088
:101EF000EE54000EED5401E288D0FD0EDBCF08F069
:101F0000FE0EDBCF09F0040E08C0DBFF050E09C092
:101F1000DBFFFB0EDBCFE9FFFC0EDBCFEAFFEE6A57
:101F2000ED6A040EDBCFE9FFDB2A050EDBCFEAFF0B
:101F300001E3DB2A030EEF6EFB0EDBCFE9FFFC0EA5
:101F4000DBCFEAFFEE2A000EED22020E086E096AD0
:101F5000DBCF0DF0030EDBCF0EF04EEC2BF0065076
:101F6000E66E040EDBCFE9FFDB2A050EDBCFEAFFCE
:101F700001E3DB2AE552E750EF6EFB0EDBCFE9FF12
:101F8000FC0EDBCFEAFFEE2A000EED22E66A020E1F
:101F9000DBCFE6FF030EDBCFE6FFDECFE6FFDDCFD4
:101FA000E6FF040EDBCFE6FF050EDBCFE6FF9EEC7F
:101FB0001BF0146E070EE15E1450E76E070EE7CFBC
:101FC000DBFFDB500BE0070EDBCFE6FF62EC20F01F
:101FD000E552E76E060EE7CFDBFF16D0020EDBCF31
:101FE00014F0030EDBCF15F0010ED8901436153621
:101FF000E806FBE1FB0EDBCFE9FFFC0EDBCFEAFFDF
:102000001450EE261550ED2205D0030EF36E060E89
:10201000F3CFDBFF05D0030EF36E060EF3CFDBFF2D
:10202000060EDB50146E080EE15C03E200D0E16A9C
:10203000E552E16E1450E552E7CFD9FF1200D9CF37
:10204000E6FFE1CFD9FF0D0EE1260B0EDB6AFB0E9A
:10205000DBCFE9FFFC0EDBCFEAFFEECF14F0EFCFD2
:1020600015F00A0E145C000E155801E2D0D1010ED5
:10207000E76EFD0EDBCFE9FFFE0EDBCFEAFFE75098
:10208000E926000EEA22EF50000EF350DE6EDD6A04
:10209000020EE76EFD0EDBCFE9FFFE0EDBCFEAFF9F
:1020A000E750E926000EEA22EF50DF12DF2A010E88
:1020B00001E3DB2A030EE76EFD0EDBCFE9FFFE0E28
:1020C000DBCFEAFFE750E926000EEA22EF50000ED0
:1020D000F350E66ED950020FE96EDACFEAFFE5520F
:1020E000E750EE6EED6A040EE76EFD0EDBCFE9FF02
:1020F000FE0EDBCFEAFFE750E926000EEA22EF50A2
:10210000146E156AD950020FE96EDACFEAFF145047
:10211000EE121550ED12050EE76EFD0EDBCFE9FF56
:10212000FE0EDBCFEAFFE750E926000EEA22EF5071
:10213000000EF350E66ED950040FE96EDACFEAFFD5
:10214000E552E750EE6EED6A060EE76EFD0EDBCF50
:10215000E9FFFE0EDBCFEAFFE750E926000EEA2298
:10216000EF50146E156AD950040FE96EDACFEAFF0A
:102170001450EE121550ED12040EDB2A050E01E389
:10218000DB2A070EE76EFD0EDBCFE9FFFE0EDBCF8D
:10219000EAFFE750E926000EEA22EF50000EF35066
:1021A000E66ED950060FE96EDACFEAFFE552E75046
:1021B000EE6EED6A080EE76EFD0EDBCFE9FFFE0E58
:1021C000DBCFEAFFE750E926000EEA22EF50146E5B
:1021D000156AD950060FE96EDACFEAFF1450EE12F5
:1021E0001550ED12090EE76EFD0EDBCFE9FFFE0E76
:1021F000DBCFEAFFE750E926000EEA22080EEFCF18
:10220000DBFF020EDBCF14F0030EDBCF15F0010E67
:10221000145C000E155801E2F5D0D950020FE96E9A
:10222000DACFEAFF7D0ED880EE54000EED5401E2C5
:10223000E9D0060EDBCF16F0070EDBCF17F0010E4C
:10224000165C000E175801E2DDD0D950060FE96E7A
:10225000DACFEAFF790ED880EE54000EED5401E299
:10226000D1D0020E086E096A060EDBCF0DF0070E04
:10227000DBCF0EF04EEC2BF006C018F007C019F0C3
:10228000080EDB501A6E1B6A1A50181802E11B5018
:10229000191801E0B7D0010EE66E060EDBCFE6FF9F
:1022A000070EDBCFE6FF040EDBCFE6FF050EDBCF2C
:1022B000E6FF0A0EE76EFD0EDBCF14F0FE0EDBCF5D
:1022C00015F0E7501426000E152214C0E6FF15C0C5
:1022D000E6FF9EEC1BF0166E070EE15E1650E76EF1
:1022E0000C0EE7CFDBFFDB5001E07ED0FD0EDBCF35
:1022F00008F0FE0EDBCF09F0090E08C0DBFF0A0E66
:1023000009C0DBFFFB0EDBCFE9FFFC0EDBCFEAFFF2
:10231000EE6AED6A090EDBCFE9FFDB2A0A0EDBCF9E
:10232000EAFF01E3DB2A170EEF6EFB0EDBCFE9FFBE
:10233000FC0EDBCFEAFFEE2A000EED22020E086E45
:10234000096ADBCF0DF0030EDBCF0EF04EEC2BF065
:102350000650E66E090EDBCFE9FFDB2A0A0EDBCF63
:10236000EAFF01E3DB2AE552E750EF6EFB0EDBCF1D
:10237000E9FFFC0EDBCFEAFFEE2A000EED22E66A53
:10238000020EDBCFE6FF030EDBCFE6FFDECFE6FF7C
:10239000DDCFE6FF090EDBCFE6FF0A0EDBCFE6FF5F
:1023A0009EEC1BF0146E070EE15E1450E76E0C0EEF
:1023B000E7CFDBFFDB5018E1020E086E096ADBCFC6
:1023C0000DF0030EDBCF0EF04EEC2BF006C014F038
:1023D00007C015F0FB0EDBCFE9FFFC0EDBCFEAFFF9
:1023E0001450EE261550ED220C0EDB500AE00C0EB8
:1023F000DBCFE6FF62EC20F0E552E76E0B0EE7CF95
:10240000DBFF05D0030EF36E0B0EF3CFDBFF0B0EDD
:10241000DB50146E0D0EE15C03E200D0E16AE55280
:0C242000E16E1450E552E7CFD9FF120026
:04242C00D9CFE6FF1F
:10243000E1CFD9FF090EE126070EDB6AFB0EDBCFE9
:10244000E9FFFC0EDBCFEAFF050EEE1801E1ED50CF
:1024500001E011D1010EE76EFD0EDBCFE9FFFE0EAC
:10246000DBCFEAFFE750E926000EEA22EF50000E2C
:10247000F350DE6EDD6A020EE76EFD0EDBCFE9FF84
:10248000FE0EDBCFEAFFE750E926000EEA22EF500E
:10249000DF12DF2A010E01E3DB2A030EE76EFD0ED9
:1024A000DBCFE9FFFE0EDBCFEAFFE750E926000EA7
:1024B000EA22EF50000EF350E66ED950020FE96E9B
:1024C000DACFEAFFE552E750EE6EED6A040EE76EF2
:1024D000FD0EDBCFE9FFFE0EDBCFEAFFE750E9267A
:1024E000000EEA22EF50146E156AD950020FE96E01
:1024F000DACFEAFF1450EE121550ED12020EDBCFC8
:1025000014F0030EDBCF15F0010E145C000E15580D
:1025100001E2ABD0020EDBCF16F0030EDBCF17F0DB
:10252000D00E165C070E175801E39FD0FD0EDBCFCF
:1025300008F0FE0EDBCF09F0050E08C0DBFF060E2B
:1025400009C0DBFFFB0EDBCFE9FFFC0EDBCFEAFFB0
:10255000EE6AED6A050EDBCFE9FFDB2A060EDBCF64
:10256000EAFF01E3DB2A010EEF6EFB0EDBCFE9FF92
:10257000FC0EDBCFEAFFEE2A000EED22020EDB504E
:10258000070B15E0020EDBCF14F0030EDBCF15F0C6
:102590000F0B05E0D89015321432E806FBE1010E6E
:1025A0001426000E1522040E14C0DBFF12D0080EF4
:1025B000146E156A020EDBCF08F0030EDBCF09F0B4
:1025C00014C00DF015C00EF0DCEC2BF0040E08C0AA
:1025D000DBFF050EDBCFE9FFDB2A060EDBCFEAFFD0
:1025E00001E3DB2A040EDBCFEFFFFB0EDBCFE9FFBD
:1025F000FC0EDBCFEAFFEE2A000EED22E66A020EA9
:10260000DBCFE6FF030EDBCFE6FFDECFE6FFDDCF5D
:10261000E6FF050EDBCFE6FF060EDBCFE6FFBFECE5
:102620001CF0146E070EE15E1450E76E080EE7CF43
:10263000DBFFDB500BE0080EDBCFE6FF62EC20F0A7
:10264000E552E76E070EE7CFDBFF0ED0040EDB503E
:10265000146E156AFB0EDBCFE9FFFC0EDBCFEAFF41
:102660001450EE261550ED2205D0030EF36E070E22
:10267000F3CFDBFF05D0030EF36E070EF3CFDBFFC6
:10268000070EDB50146E090EE15C03E200D0E16A34
:10269000E552E16E1450E552E7CFD9FF1200D9CFD1
:1026A000E6FFE1CFD9FF060EE126040EDB6AFB0E42
:1026B000DBCFE9FFFC0EDBCFEAFF050EEE1801E1F0
:1026C000ED5001E091D0010EE76EFD0EDBCFE9FF8A
:1026D000FE0EDBCFEAFFE750E926000EEA22EF50BC
:1026E000000EF350DE6EDD6A020EE76EFD0EDBCFEC
:1026F000E9FFFE0EDBCFEAFFE750E926000EEA22F3
:10270000EF50DF12DF2A010E01E3DB2A040EE76E31
:10271000FD0EDBCFE9FFFE0EDBCFEAFFE750E92637
:10272000000EEA22EF505AE1030EE76EFD0EDBCFFA
:10273000E9FFFE0EDBCFEAFFE750E926000EEA22B2
:10274000EF50FF080EE0030EE76EFD0EDBCFE9FF52
:10275000FE0EDBCFEAFFE750E926000EEA22EF503B
:102760003DE1030EDB6AE76EFD0EDBCFE9FFFE0EF7
:10277000DBCFEAFFE750E926000EEA22EF50FF0820
:1027800006E1010EF36E020EF3CFDBFF02D0020E64
:10279000DB6A010EE66EE66EE66ADECFE6FFDDCFAF
:1027A000E6FFD950020FE66E000EDA20E66EBFECAF
:1027B0001CF0146E070EE15E1450E76E050EE7CFB5
:1027C000DBFFDB500AE0050EDBCFE6FF62EC20F01A
:1027D000E552E76E040EE7CFDBFF05D0030EF36E84
:1027E000040EF3CFDBFF05D0030EF36E040EF3CF20
:1027F000DBFF040EDB50146E060EE15C03E200D03A
:10280000E16AE552E16E1450E552E7CFD9FF1200BC
:10281000D9CFE6FFE1CFD9FF080EE126060EDB6A2D
:10282000FB0EDBCFE9FFFC0EDBCFEAFF050ED88005
:10283000EE54000EED5401E3EED0010EE76EFD0EF6
:10284000DBCFE9FFFE0EDBCFEAFFE750E926000E03
:10285000EA22EF50000EF350DE6EDD6A020EE76EE4
:10286000FD0EDBCFE9FFFE0EDBCFEAFFE750E926E6
:10287000000EEA22EF50DF12DF2A010E01E3DB2A0D
:10288000030EE76EFD0EDBCFE9FFFE0EDBCFEAFFA6
:10289000E750E926000EEA22EF50000EF350E66EF4
:1028A000D950020FE96EDACFEAFFE552E750EE6E3B
:1028B000ED6A040EE76EFD0EDBCFE9FFFE0EDBCF07
:1028C000EAFFE750E926000EEA22EF50146E156A7F
:1028D000D950020FE96EDACFEAFF1450EE1215500C
:1028E000ED12050EE76EFD0EDBCFE9FFFE0EDBCF2E
:1028F000EAFFE750E926000EEA22040EEFCFDBFFE5
:10290000020EDB50070B15E0020EDBCF14F0030EB6
:10291000DBCF15F00F0B05E0D89015321432E80626
:10292000FBE1010E1426000E1522050E14C0DBFF7C
:1029300012D0080E146E156A020EDBCF08F0030EDB
:10294000DBCF09F014C00DF015C00EF0DCEC2BF05D
:10295000050E08C0DBFF020EDBCF14F0030EDBCF49
:1029600015F0010E145C000E15584FE3D950020FFC
:10297000E96EDACFEAFFB00ED880EE54070EED54C0
:1029800044E3040EDB50F36E050EDB50F35C3DE1D7
:10299000010EE66E020EDBCFE6FF030EDBCFE6FF95
:1029A000DECFE6FFDDCFE6FF060EE76EFD0EDBCFE6
:1029B00014F0FE0EDBCF15F0E7501426000E1522A2
:1029C00014C0E6FF15C0E6FFBFEC1CF0166E070E44
:1029D000E15E1650E76E070EE7CFDBFFDB500BE042
:1029E000070EDBCFE6FF62EC20F0E552E76E060E45
:1029F000E7CFDBFF09D0FB0EDBCFE9FFFC0EDBCF1F
:102A0000EAFF050EEE6EED6A05D0030EF36E060EBC
:102A1000F3CFDBFF05D0030EF36E060EF3CFDBFF23
:102A2000060EDB50146E080EE15C03E200D0E16A92
:0E2A3000E552E16E1450E552E7CFD9FF1200D7
:022A3E00D9CFEE
:102A4000E6FFE1CFD9FFE652DF6AFD0EDB5013E06F
:102A5000010EF36EFD0EDBCFF4FFF350F45C0BE3DD
:102A6000FD0EDB50146E156A153404E21450F7089D
:102A7000000E155403E2020EDF6E5DD0FD0EDBCFBB
:102A800000FFFE0EDB5001E045D00F01840E056F04
:102A9000310E066F076BA00E086F310E096F0A6BBF
:102AA000960E026F320E036F046BB60E0B6F310E73
:102AB0000C6F0D6B0E6B0F6B106BA60E116F330E40
:102AC000126F136B740E146F340E156F166B020EAB
:102AD000176F350E186F196BF70EDBCFE6FFD95065
:102AE000F80FE96EFF0EDA20EA6EEECFE6FFEECFCA
:102AF000E6FFEECFE6FFEFCFE6FFFC0EDBCFE6FF13
:102B000000CFE6FF22EC18F0146E070EE15E1450C1
:102B1000DF6E02D0020EDF6EDF500DE187EC2AF08F
:102B2000000903E1030EDF6E06D0FE0EDBCF01FFCE
:102B30000201010E4B6FDF5000D0E552E552E7CFA6
:102B4000D9FF1200D9CFE6FFE1CFD9FF030EE1266E
:102B5000146AFE0EDB50145C01E3ECD0FE0EDB5079
:102B60007F0801E2E7D0F29EFB0EDBCF14F0FC0EF3
:102B7000DBCF15F0FD0EDBCF16F01450151016103C
:102B800001E18BD0DE6ADD6ADECF14F0DDCF15F017
:102B9000D890155004E6100E145C000E15586CE227
:102BA000DECFE9FFDDCFEAFFD890E936EA36D890EC
:102BB000E936EA364C0EE926020EEA22EECF14F090
:102BC000EECF15F0EECF16F0EFCF17F00001155055
:102BD0001610171022E0FB0EDBCF18F0FC0EDBCF37
:102BE00019F0FD0EDBCF1AF0DECFE9FFDDCFEAFFF3
:102BF000D890E936EA36D890E936EA364C0EE9261E
:102C0000020EEA22EE52EE50181806E1EE501918A4
:102C100003E1EE501A1800E12AE1DECFE9FFDDCF33
:102C2000EAFFD890E936EA36D890E936EA364C0E13
:102C3000E926020EEA22FE0EDBCFEFFFDECFE9FF30
:102C4000DDCFEAFFD890E936EA36D890E936EA36A1
:102C50004C0EE926020EEA22EE52FB0EDBCFEEFF0F
:102C6000FC0EDBCFEEFFFD0EDBCFEEFF05D0DF2A43
:102C7000010E01E3DB2A88D7D9CFE9FFDACFEAFFDB
:102C8000100EEE1801E1ED5002E0000E01D0040E2E
:102C9000E76E020EE7CFDBFF4BD0DE6ADD6ADECFE8
:102CA00014F0DDCF15F0D890155004E6100E145C2A
:102CB000000E15583BE2DECFE9FFDDCFEAFFD890EA
:102CC000E936EA36D890E936EA364C0EE926020EA5
:102CD000EA22EFCF14F0FE0EDB50145C22E1DECFCF
:102CE000E9FFDDCFEAFFD890E936EA36D890E93639
:102CF000EA364C0EE926020EEA22EF6ADECFE9FF41
:102D0000DDCFEAFFD890E936EA36D890E936EA36E0
:102D10004C0EE926020EEA22EE52EE6AEE6AEE6AE6
:102D200005D0DF2A010E01E3DB2AB9D7020EDB6AE8
:102D3000F28E04D0020EF36EF3CFDBFFDB50146E85
:102D4000030EE15C03E200D0E16AE552E16E14504B
:102D5000E552E7CFD9FF1200D9CFE6FFE1CFD9FF87
:102D6000E652DF6A02014B050FE10F010E510F1110
:102D7000101109E007D010CFFBFF0FCFFAFF0F01B2
:102D80000E51F96EF8DF02D0060EDF6EDF5000D074
:102D9000E552E552E7CFD9FF1200D9CFE6FFE1CFE8
:102DA000D9FFE652DF6A02014B050CE107D007CFDD
:102DB000FBFF06CFFAFF0F010551F96EF8DF0201A4
:102DC0004B6B02D0060EDF6EDF5000D0E552E552AD
:102DD000E7CFD9FF1200D9CFE6FFE1CFD9FFE65206
:102DE00002014B510EE107D00ACFFBFF09CFFAFFDA
:102DF0000F010851F96EF8DF0201010E4B6FDF6A17
:102E000006D04B0502E1DF6A02D0060EDF6EDF500E
:102E100000D0E552E552E7CFD9FF1200D9CFE6FF47
:102E2000E1CFD9FF040EE126020EDB6A02014B510D
:102E300002E0060EFBD0D950030FE66E000EDA203A
:102E4000E66E9CEC2AF0E552E552010801E0ECD078
:102E5000030EDB50030A01E1E6D0010A31E0030A68
:102E600004E0010A01E0E0D0DFD0240EE66E0F0E90
:102E7000E66E200EE66E0F0EE66E220EE66E0F0E6A
:102E8000E66E07D00DCFFBFF0CCFFAFF0F010B5101
:102E9000F96EF8DF146E060EE15E1450E76E020E56
:102EA000E7CFDBFFDB500BE10F010051225D02E0B9
:102EB000225105E1020EE66E8CEC2AF0E552B4D008
:102EC00020CFE9FF21CFEAFFEFCF23FF0F01010E53
:102ED000266FDE6ADD6ADECF14F0DDCF15F0D89004
:102EE000155004E6100E145C000E155857E2DECFA4
:102EF000E9FFDDCFEAFFD890E936EA36D890E93627
:102F0000EA364C0EE926020EEA22EF5002E146D0E4
:102F100040D0DECFE9FFDDCFEAFFD890E936EA36D0
:102F2000D890E936EA364C0EE926020EEA22EF5036
:102F30000F01235D2EE1DECFE9FFDDCFEAFFD89060
:102F4000E936EA36D890E936EA364C0EE926020E22
:102F5000EA22EECF14F0EECF15F0EECF16F0EFCF61
:102F600017F0240EE66E0F0EE66E20CFE6FF21CF9F
:102F7000E6FF07D017C0FBFF16C0FAFF000115508F
:102F8000F96EF8DFE552E552E552E5520F01266F82
:102F900005D0DF2A010E01E3DB2A9DD70F01225164
:102FA00041E0265124E0246B256B800E2311E66E50
:102FB00024CF14F025CF15F0242B000E252320510B
:102FC0001424E96E21511520EA6EE552E750EF6EA8
:102FD00024CF14F025CF15F0242B000E25232051EB
:102FE0001424E96E21511520EA6E26CFEFFF24CF7D
:102FF000E6FF25CFE6FF20CFE6FF21CFE6FF00CF9B
:10300000E6FF07D004CFFBFF03CFFAFF0F01025109
:10301000F96EF8DF146E050EE15E1450E76E020ED5
:10302000E7CFDBFF01D000D0000E00D0146E040EFD
:10303000E15C02E2E16AE552E16E1450E552E7CF4D
:04304000D9FF1200A2
:0C304400D9CFE6FFE1CFD9FF050EE12651
:10305000DF6A9D9AF80EDBCFE6FF080EE66ED950C8
:10306000F90FE96EFF0EDA20EA6EEECFE6FFEECF43
:10307000E6FFEECFE6FFEFCFE6FFFD0EDBCFE6FF8C
:103080002EEC22F0146E070EE15E1450010803E0EE
:10309000030EDF6E68D0D950F90FE96EFF0EDA200B
:1030A000EA6ED880020EEE54000EEE54000EEE547E
:1030B000000EEE540FE2A30EF36E010EF3CFDBFF12
:1030C000BB0EF36E020EF3CFDBFF030EDB6A040EC2
:1030D000DB6A3BD0D950F90FE96EFF0EDA20EA6EB9
:1030E000010EEE1805E1EE5003E1EE5001E1EE5065
:1030F0000FE1CF0EF36E010EF3CFDBFF710EF36E17
:10310000020EF3CFDBFF030EDB6A040EDB6A1DD079
:10311000D950F90FE96EFF0EDA20EA6E020EEE18B2
:1031200005E1EE5003E1EE5001E1EE500EE1E70E55
:10313000F36E010EF3CFDBFFB80EF36E020EF3CF8A
:10314000DBFF030EDB6A040EDB6A010EDBCFE6FF5A
:10315000020EDBCFE6FF4FEC28F0E552E552010806
:1031600002E0030EDF6E9D8ADF50146E050EE15CF7
:1031700003E200D0E16AE552E16E1450E552E7CF78
:10318000D9FF12009D9A0F01366BE66A010EE66EBA
:1031900013EC22F0E552E5527CEC28F09D8A1200F7
:1031A0009D9AE66AE66A13EC22F0E552E55287EC56
:1031B00028F09D8A1200D9CFE6FFE1CFD9FF040E97
:1031C000E126DF6A010EDB6A9D9A0101F00EF45DD3
:1031D000000EF55902E3050E52D0040EF45D000E08
:1031E000F55946E3F4C1E6FFF5C1E6FF000EE66ED1
:1031F000010EE66EE0EC28F0E552E552E552E552AC
:10320000020EF3CFDBFF030EF4CFDBFFD950020F2A
:10321000E96EDACFEAFFEE50ED1029E1FD0EDBCFCB
:10322000E9FFFE0EDBCFEAFF00C1EFFFF4C114F0AF
:10323000F5C115F01406000E155A020E145E000EAC
:10324000155AF90EDBCFE9FFFA0EDBCFEAFF14C007
:10325000EEFF15C0EDFFFB0EDBCFE9FFFC0EDBCF71
:10326000EAFF010EEE6E010EED6E010EDF6E03D071
:10327000DE52050EDD6E9D8A010EDB5000D0146E0D
:10328000040EE15C02E2E16AE552E16E1450E5529F
:10329000E7CFD9FF1200D9CFE6FFE1CFD9FF030E68
:1032A000E126DF6A9D9A0F0136056CE1FC0EDBCF4B
:1032B000F0F1FD0EDBCFF1F10101010EF05F000E28
:1032C000F15B010EF26FF36BFE0EDB50F0C1E9FF14
:1032D000F1C1EAFFEF6EFA0EDBCF08F0FB0EDBCF99
:1032E00009F00850F2270950F323F2C1E6FFF3C1B9
:1032F000E6FFF0C1E6FFF1C1E6FFE0EC28F0E552A1
:10330000E552E552E552DE52F3CFDEFFF4CFDDFFAA
:10331000DD52FF0EE76E010EDBCF14F0020EDBCFA5
:1033200015F0E7501416156A0101F2C1E9FFF3C167
:10333000EAFFF22B000EF323000EE926010EEA222B
:1033400014C0EFFF010EDBCF14F0020EDBCF15F03F
:1033500015C014F0156AF2C1E9FFF3C1EAFFF22BC0
:10336000000EF323000EE926010EEA2214C0EFFF3F
:103370000F01010E356FE66EE66A13EC22F0E5529E
:10338000E55202D0050EDF6E9D8ADF50146E030EEB
:10339000E15C03E200D0E16AE552E16E1450E552CF
:1033A000E7CFD9FF1200D9CFE6FFE1CFD9FF020E58
:1033B000E126DF6A0F01355102E0000E4FD0D950EF
:1033C000010FE66E000EDA20E66EB3EC22F0E55255
:1033D000E5520F013651020A24E0030A0BE0020A0B
:1033E00006E0030A01E038D07CEC28F035D07CEC14
:1033F00028F032D00101F46BF56BF4C1E9FFF5C19F
:10340000EAFFF42B000EF523000EE926010EEA2256
:10341000010EDBCFEFFF0F01020E366F7CEC28F0C0
:103420001BD00101F00EF45D000EF5590FE2F4C15E
:10343000E9FFF5C1EAFFF42B000EF523000EE926A3
:10344000010EEA22010EDBCFEFFF03D00F01030EC6
:10345000366F7CEC28F000D0DF5000D0146E020EE6
:10346000E15C02E2E16AE552E16E1450E552E7CF19
:10347000D9FF1200D9CFE6FFE1CFD9FFE652DF6ACC
:103480000F01360502E0000E37D03551010A0BE07E
:10349000010A01E02FD0E66A010EE66E13EC22F07D
:1034A000E552E55227D00101000ED880F255000EFA
:1034B000F35510E2F0C1E9FFF1C1EAFFEF50E66E0B
:1034C00098EC22F0E5520101F02B000EF123F207F7
:1034D000F35BE9D7030EE66E8CEC2AF0E552DF6E63
:1034E000E66A010EE66E13EC22F0E552E5520F019A
:1034F000356B00D0DF5000D0E552E552E7CFD9FF61
:103500001200D9CFE6FFE1CFD9FFE652DF6A0F0103
:103510003651030A12E0010A09E0020A01E00ED066
:10352000E66A8CEC2AF0E552DF6E08D0010EE66EFA
:103530008CEC2AF0E552DF6E01D000D087EC28F049
:103540000F01010E366FDF5000D0E552E552E7CF94
:04355000D9FF12008D
:0C355400D9CFE6FFE1CFD9FF060EE1263B
:10356000010EDB6A4B0EF36E020EF3CFDBFF010E92
:10357000F36E030EF3CFDBFF040EDB6AE66A010E87
:10358000DBCF14F0020EDBCF15F0166A176A14C0F9
:10359000E6FF15C0E6FF16C0E6FF17C0E6FFE66AC5
:1035A000030EDBCFE6FFE66A1FEC15F0186E080E7F
:1035B000E15E1850E76E050EE7CFDBFFCDEC16F0AD
:1035C000E76E050EE7CFDBFFDF6A210EDF5C13E25B
:1035D000DF50EA6A240FE96E020EEA22EF50E66E2F
:1035E000DF50EA6AFA0FE96E010EEA22E552E7506F
:1035F000EF6EDF2AEAD7E66A0EEC07F0E552020129
:103600001E6B080E1F6F226FFA0E206F010E216FC6
:10361000236B1E0EE66E020EE66EE66AD2EC01F039
:10362000E552E552E552010EE66E0EEC07F0E5526A
:103630000201080E1E6F1F6F226F020E206F020E16
:10364000216F236B1E0EE66E020EE66E010EE66E15
:10365000D2EC01F0E552E552E552020EE66E0EECB8
:1036600007F0E5520201100E1E6F080E1F6F226F49
:103670000A0E206F020E216F236B1E0EE66E020EE5
:10368000E66E020EE66ED2EC01F0E552E552E5522E
:10369000030EE66E0EEC07F0E5520201180E1E6FE7
:1036A000080E1F6F226F120E206F020E216F236B08
:1036B0001E0EE66E020EE66E030EE66ED2EC01F012
:1036C000E552E552E552040EE66E0EEC07F0E552C7
:1036D0000201200E1E6F080E1F6F226F1A0E206F40
:1036E000020E216F236B1E0EE66E020EE66E040EB6
:1036F000E66ED2EC01F0E552E552E552060EE15CD1
:1037000002E2E16AE552E16EE552E7CFD9FF12002D
:103710001200D9CFE6FFE1CFD9FF030EE126DF6A21
:10372000DF50146E030EE15C03E200D0E16AE55263
:10373000E16E1450E552E7CFD9FF1200D9CFE6FF72
:10374000E1CFD9FF0E0EE126FB0EDB50DF6E020E3D
:10375000086E096AF90EDBCF0DF0FA0EDBCF0EF022
:103760004EEC2BF0010E06C0DBFF020EDB6A030EEF
:10377000DB6AD950040FE96EDACFEAFF490EEE6E2C
:10378000440EEE6E450EEE6E4F0EEE6E4E0EEE6E6B
:10379000490EEE6E430EEE6E530EEE6E200EEE6E82
:1037A000EE6AF80EDB5024E0010A01E056D0010E6B
:1037B000DB5000081CE2FD0EDBCFE9FFDB2AFE0E2A
:1037C000DBCFEAFF01E3DB2AEF50E66E030EDBCF2F
:1037D000F3FFDB2AF350EA6AFA0FE96E010EEA22E0
:1037E000E552E750EF6EDF2A010EDB06E0D735D059
:1037F000010EDB50000830E2FD0EDBCFE9FFDB2AD3
:10380000FE0EDBCFEAFF01E3DB2A410EEF6EFD0E79
:10381000DBCFE9FFDB2AFE0EDBCFEAFF01E3DB2A89
:10382000420EEF6EFD0EDBCFE9FFDB2AFE0EDBCF93
:10383000EAFF01E3DB2A430EEF6EFD0EDBCFE9FF6B
:10384000DB2AFE0EDBCFEAFF01E3DB2A440EEF6E3C
:10385000DF2A010EDB06CCD700D0E66A0EEC07F0BB
:10386000E55202011E6B080E1F6F226FFA0E206FC9
:10387000010E216F236B1E0EE66E020EE66EE66AE7
:10388000D2EC01F0E552E552E552010EE66E0EEC87
:1038900007F0E5520201080E1E6F1F6F226F020E25
:1038A000206F020E216F236B1E0EE66E020EE66E77
:1038B000010EE66ED2EC01F0E552E552E552020E41
:1038C000E66E0EEC07F0E5520201100E1E6F080EB8
:1038D0001F6F226F0A0E206F020E216F236B1E0EC8
:1038E000E66E020EE66E020EE66ED2EC01F0E552D6
:1038F000E552E552030EE66E0EEC07F0E5520201CA
:10390000180E1E6F080E1F6F226F120E206F020E10
:10391000216F236B1E0EE66E020EE66E030EE66E40
:10392000D2EC01F0E552E552E552040EE66E0EECE3
:1039300007F0E5520201200E1E6F080E1F6F226F66
:103940001A0E206F020E216F236B1E0EE66E020E02
:10395000E66E040EE66ED2EC01F0E552E552E55259
:10396000020EDB50146E0E0EE15C03E200D0E16A41
:10397000E552E16E1450E552E7CFD9FF1200D9CFDE
:10398000E6FFE1CFD9FF010E00D0E552E7CFD9FF26
:103990001200D9CFE6FFE1CFD9FF010E00D0E552EA
:0639A000E7CFD9FF120081
:0A39A60000000000000000002020D7
:1039B0002020000020005050500000000000505017
:1039C000F850F85050002078A07028F02000C0C8AF
:1039D0001020409818006090A040A89068006020D7
:1039E0004000000000001020404040201000402017
:1039F0001010102040000020A870A8200000002017
:103A000020F82020000000000000301020000000FE
:103A1000007C000000000000000000606000000862
:103A2000102040800000708898A8C888700020602E
:103A3000A0202020F800708808102040F800F8101E
:103A400020100888700010305090F8101000F88096
:103A5000F0080808F000304080F088887000F8080E
:103A600010204040400070888870888870007088FE
:103A700088780810600000606000606000000060EE
:103A80006000602040000810204020100800000066
:103A9000F800F80000004020100810204000708856
:103AA00008102000200070880868A8A87000205026
:103AB00088F888888800F08888F08888F000708806
:103AC000808080887000E09088888890E000F8808E
:103AD00080F08080F800F88080F08080800070881E
:103AE00080B888887800888888F888888800F820D6
:103AF00020202020F80038101010109060008890CE
:103B0000A0C0A0908800808080808080F80088D845
:103B1000A8A8888888008888C8A89888880070889D
:103B2000888888887000F08888F08080800070889D
:103B30008888A8906800F08888F0A0908800788035
:103B400080700808F000F8202020202020008888BD
:103B500088888888700088888888885020008888AD
:103B600088A8A8A850008888502050888800888895
:103B7000885020202000F80810204080F800704075
:103B80004040404070008850F820F820200070101D
:103B9000101010107000205088000000000000007D
:103BA00000000000F80040201000000000000000AD
:103BB0007008788878008080B0C88888F00000009D
:103BC00070808088700008086898888878000000F5
:103BD0007088F8807000304840E040404000007835
:103BE0008888780870008080B0C8888888002000A5
:103BF000602020207000080008080848300040407D
:103C000048506050480060202020202070000000B4
:103C1000D0A8A88888000000B0C888888800000064
:103C20007088888870000000F088F08080000000B4
:103C30006898780808000000B0C880808000000004
:103C400070807008F0004040E040404830000000C4
:103C500088888898680000008888885020000000C4
:103C60008888A8A8500000008850205088000000D4
:103C70008888780870000000F8102040F8001020B4
:103C80002040202010002020202020202000201074
:103C9000100810102000002010F810200000002054
:103CA00040F8402000003048483000000000304814
:103CB000483000000000081838783818080004045C
:103CC000040404040400FFFFFFFFFFFFFF000004E3
:103CD00004000404000000808000808000008080D8
:103CE000808080808000C0C0C0C0C0C0C000E0E054
:103CF000E0E0E0E0E000F0F0F0F0F0F0F000F8F8E4
:103D0000F8F8F8F8F800FCFCFCFCFCFCFC00FDFDFD
:103D1000FDFDFDFDFD002070F870707070003048F2
:103D200084848448300084483030304884000070F7
:103D300048704040000000304070106000000040BB
:103D400040404078000000008005C004E003F0021D
:0E3D5000F80100000804180338027801F8009A
:023D5E00D9CFBB
:103D6000E6FFE1CFD9FF0A0EE126F90EDB50E66E41
:103D7000D950080FE96EDACFEAFFE552E750EE6E50
:103D8000ED6AFA0EDB50080801E2F1D0080E146E5D
:103D9000156AFB0EDBCF08F0FC0EDBCF09F014C078
:103DA0000DF015C00EF0DCEC2BF0040E08C0DBFFAC
:103DB000050E09C0DBFFFB0EDBCF16F0FC0EDBCFE0
:103DC00017F0080E086E096A040EDBCF0DF0050E21
:103DD000DBCF0EF04EEC2BF00650165C146E075045
:103DE0001758156E060E14C0DBFF070E15C0DBFF5B
:103DF000060EDBCF14F0D950080FE96EDACFEAFFD8
:103E00001450E85005E0D890EE36ED36E806FBE1B8
:103E1000FA0EDB50166E010E165204E0E846FE0B59
:103E20001606FCE1FF0F146E156A14BE1568020E2B
:103E300014C0DBFF030E15C0DBFFFB0EDBCF16F05B
:103E4000FC0EDBCF17F0080E086E096A040EDBCFFC
:103E50000DF0050EDBCF0EF04EEC2BF00650165C8D
:103E6000146E07501758156ED950020FE96EDACF4D
:103E7000EAFF1450E85005E0D890EE36ED36E8063B
:103E8000FBE1040EDBCF14F0050EDBCF15F0FD0EC9
:103E9000DB501424E96EFE0EDB501520EA6EEF5065
:103EA000DE6EDD6A010EE76E040EDBCF14F0050E48
:103EB000DBCF15F0E7501426000E1522FD0EDB5067
:103EC0001424E96EFE0EDB501520EA6EEF50000E52
:103ED000F350DF12020EDB1C186E030EDB1C196E92
:103EE000DE501814166EDD501914176E080EDB50D4
:103EF0001610146E090EDB501710156E14C0DEFF7D
:103F000015C0DDFFDECF16F0DDCF17F0FF0E161661
:103F1000000E1716040EDBCF14F0050EDBCF15F0E4
:103F2000FD0EDB501424E96EFE0EDB501520EA6E08
:103F300016C0EFFFDECF16F0DDCF17F017C016F07A
:103F4000176A010EE76E040EDBCF14F0050EDBCF0F
:103F500015F0E7501426000E1522FD0EDB50142438
:103F6000E96EFE0EDB501520EA6E16C0EFFF0A0E5A
:103F7000E15C02E2E16AE552E16EE552E7CFD9FF8A
:103F80001200D9CFE6FFE1CFD9FF080EE126146E6B
:103F9000156AFB0EDBCF08F0FC0EDBCF09F014C076
:103FA0000DF015C00EF0DCEC2BF0040E08C0DBFFAA
:103FB000050E09C0DBFFFB0EDBCF16F0FC0EDBCFDE
:103FC00017F0080E086E096A040EDBCF0DF0050E1F
:103FD000DBCF0EF04EEC2BF00650165C146E075043
:103FE0001758156E060E14C0DBFF070E15C0DBFF59
:103FF000FA0EDB50166E010E165204E0E846FE0B78
:104000001606FCE1FF0F146E156A14BE1568020E49
:1040100014C0DBFF030E15C0DBFF040EDBCF14F072
:10402000050EDBCF15F0FD0EDB501424E96EFE0EFD
:10403000DB501520EA6EEF50DE6EDD6A010EE76E92
:10404000040EDBCF14F0050EDBCF15F0E75014267D
:10405000000E1522FD0EDB501424E96EFE0EDB501F
:104060001520EA6EEF50000EF350DF12060EDBCF84
:1040700014F0D9CFE9FFDACFEAFF14500F0B06E0B6
:10408000EC52D890ED32EF32E806FAE1020EDBCFC7
:1040900014F0030EDBCF15F0D9CFE9FFDACFEAFF3A
:1040A0001450EE161550ED16DF50146E080EE15C3C
:1040B00003E200D0E16AE552E16E1450E552E7CF29
:1040C000D9FF1200D9CFE6FFE1CFD9FFE652FE0EAD
:1040D000DB50070A0CE0060A07E0010A03E0040EC1
:1040E000DF6E08D0DF6A06D0020EDF6E03D0060E48
:1040F000DF6E00D0DF5000D0E552E552E7CFD9FFA8
:024100001200AB
:0E410200DACFE4FFE2CFDAFFE9CFE4FFEACF45
:10411000E4FFF6CFE4FFF7CFE4FFF5CFE4FFF3CF02
:10412000E4FFF4CFE4FFFACFE4FF00EE00F0140E5A
:10413000E80403E3EECFE4FFFBD700EE14F00A0E31
:10414000E80403E3EECFE4FFFBD7E652F29402016A
:10415000BA2B000EBB23BC23BD23BE2BBF23C02B19
:10416000C123C22BC323B051B11107E005D0B1C2A6
:10417000FAFF0201B051F96EFADFAEC2E6FFAFC23C
:10418000E6FFA4EC2BF0E552E552E55200EE1DF0FF
:104190000A0EE80403E3E5CFEDFFFBD700EE13F0D2
:1041A000140EE80403E3E5CFEDFFFBD7E5CFFAFFFC
:1041B000E5CFF4FFE5CFF3FFE5CFF5FFE5CFF7FF60
:1041C000E5CFF6FFE5CFEAFFE5CFE9FFE5CFDAFF80
:1041D0001100DACFE4FFE2CFDAFFE9CFE4FFEACF64
:1041E000E4FFF6CFE4FFF7CFE4FFF5CFE4FFF3CF32
:1041F000E4FFF4CFE4FFFACFE4FF00EE00F0140E8A
:10420000E80403E3EECFE4FFFBD700EE14F00A0E60
:10421000E80403E3EECFE4FFFBD7E6529E90B2C280
:10422000E6FFB3C2E6FF88EC2BF0E552E55202014F
:10423000B451B51107E005D0B5C2FAFF0201B4517F
:10424000F96EFADFE55200EE1DF00A0EE80403E312
:10425000E5CFEDFFFBD700EE13F0140EE80403E307
:10426000E5CFEDFFFBD7E5CFFAFFE5CFF4FFE5CFD4
:10427000F3FFE5CFF5FFE5CFF7FFE5CFF6FFE5CF9D
:10428000EAFFE5CFE9FFE5CFDAFF1100DACFE4FF7F
:10429000E2CFDAFFE9CFE4FFEACFE4FFF6CFE4FFB5
:1042A000F7CFE4FFF5CFE4FFF3CFE4FFF4CFE4FF73
:1042B000FACFE4FF00EE00F0140EE80403E3EECFC3
:1042C000E4FFFBD700EE14F00A0EE80403E3EECFA0
:1042D000E4FFFBD7E6529E92B6C2BBFF0201B85183
:1042E000B91107E005D0B9C2FAFF0201B851F96E61
:1042F000FADFE55200EE1DF00A0EE80403E3E5CF15
:10430000EDFFFBD700EE13F0140EE80403E3E5CF56
:10431000EDFFFBD7E5CFFAFFE5CFF4FFE5CFF3FFE5
:10432000E5CFF5FFE5CFF7FFE5CFF6FFE5CFEAFFF5
:10433000E5CFE9FFE5CFDAFF1100D9CFE6FFE1CF06
:10434000D9FF9F0EE66EC0EC2BF0E552FD0EDBCFE1
:10435000AEF2FE0EDBCFAFF2FB0EDBCFB0F2FC0E07
:10436000DBCFB1F2FD0EDBCFE6FFFE0EDBCFE6FFCB
:10437000A4EC2BF0E552E552E552E7CFD9FF12004D
:10438000D9CFE6FFE1CFD9FF020EE126830EDF6E23
:10439000DE520C0EDD6E010EDBCFE6FFA30EE66EE5
:1043A000E1EC2AF0E552E552FD0EDBCFE6FFFE0E12
:1043B000DBCFE6FF88EC2BF0E552E552010ECD6E27
:1043C0009F809D809E90FD0EDBCFB2F2FE0EDBCF74
:1043D000B3F2FB0EDBCFB4F2FC0EDBCFB5F2020E74
:1043E000E15C02E2E16AE552E16EE552E7CFD9FF16
:1043F0001200D9CFE6FFE1CFD9FF0F0EBA6E9F8230
:104400009D82FE0EDB50BB6EFE0EDB500201B66FCE
:10441000B76BFC0EDBCFB8F2FD0EDBCFB9F2E55285
:06442000E7CFD9FF1200F6
:0A442600D9CFE6FFE1CFD9FFFE0E6B
:10443000DB5002E1AB9801D0AB88FD0EDB5001E10F
:1044400009D007D016CFFBFF15CFFAFF0F0114518B
:10445000F96EF8DFE552E7CFD9FF1200D9CFE6FFBA
:10446000E1CFD9FF050EE1263C0EDF6ED950FA0FE1
:10447000E96EFF0EDA20EA6EEE2A000EEE22EE2240
:10448000EE22D950FA0FE96EFF0EDA20EA6E040E22
:10449000E76ED890EF36010EEB36020EEB36030EC8
:1044A000EB36E706F6E1146A900E156ED00E166E26
:1044B000030E176E14C006F015C007F016C008F002
:1044C00017C009F0FA0EDBCF0BF0FB0EDBCF0CF0C0
:1044D000FC0EDBCF0DF0FD0EDBCF0EF00BEC2BF066
:1044E000010E06C0DBFF020E07C0DBFF030E08C093
:1044F000DBFF040E09C0DBFF010EDBCFE6FF020E7F
:10450000DBCFE6FFDFCFE6FF4EEC2AF0E552E552C7
:10451000E5529F8A010E146E050EE15C03E200D0A5
:10452000E16AE552E16E1450E552E7CFD9FF12007F
:10453000D9CFE6FFE1CFD9FF8484A00EE66E1DEC53
:104540002CF0E552FE0EDB50AD6EACA2FED784948B
:10455000A00EE66E1DEC2CF0E552010E00D0E552E7
:10456000E7CFD9FF1200D9CFE6FFE1CFD9FFE6525E
:104570002FEC2BF0DF6EFD0EDBCFE9FFFE0EDBCF65
:10458000EAFFDFCFEFFF9E9A010E00D0E552E55221
:10459000E7CFD9FF1200DACFE4FFE2CFDAFFE9CFAD
:1045A000E4FFEACFE4FFF6CFE4FFF7CFE4FFF5CF77
:1045B000E4FFF3CFE4FFF4CFE4FFFACFE4FFFBCF57
:1045C000E4FF00EE00F0140EE80403E3EECFE4FF96
:1045D000FBD700EE14F00A0EE80403E3EECFE4FF8D
:1045E000FBD7E65207D016CFFBFF15CFFAFF0F011E
:1045F0001451F96EF8DFE55200EE1DF00A0EE804E2
:1046000003E3E5CFEDFFFBD700EE13F0140EE80453
:1046100003E3E5CFEDFFFBD7E5CFFBFFE5CFFAFFE7
:10462000E5CFF4FFE5CFF3FFE5CFF5FFE5CFF7FFEB
:10463000E5CFF6FFE5CFEAFFE5CFE9FFE5CFDAFF0B
:104640001100DACFE4FFE2CFDAFFE9CFE4FFEACFEF
:10465000E4FFF6CFE4FFF7CFE4FFF5CFE4FFF3CFBD
:10466000E4FFF4CFE4FFFACFE4FFFBCFE4FF00EE7A
:1046700000F0140EE80403E3EECFE4FFFBD700EEF6
:1046800014F00A0EE80403E3EECFE4FFFBD7E65292
:1046900007D013CFFBFF12CFFAFF0F011151F96EB4
:1046A000F8DFE55200EE1DF00A0EE80403E3E5CF63
:1046B000EDFFFBD700EE13F0140EE80403E3E5CFA3
:1046C000EDFFFBD7E5CFFBFFE5CFFAFFE5CFF4FF2A
:1046D000E5CFF3FFE5CFF5FFE5CFF7FFE5CFF6FF39
:0E46E000E5CFEAFFE5CFE9FFE5CFDAFF1100F5
:0246EE00D9CF22
:1046F000E6FFE1CFD9FF090EE126070EDB6AFB0ECC
:10470000DBCFE9FFFC0EDBCFEAFF050EEE1801E17F
:10471000ED5001E010D1010EE76EFD0EDBCFE9FF99
:10472000FE0EDBCFEAFFE750E926000EEA22EF504B
:10473000000EF350DE6EDD6A020EE76EFD0EDBCF7B
:10474000E9FFFE0EDBCFEAFFE750E926000EEA2282
:10475000EF50DF12DF2A010E01E3DB2A030EE76EC2
:10476000FD0EDBCFE9FFFE0EDBCFEAFFE750E926C7
:10477000000EEA22EF50000EF350E66ED950020F01
:10478000E96EDACFEAFFE552E750EE6EED6A040E0D
:10479000E76EFD0EDBCFE9FFFE0EDBCFEAFFE75051
:1047A000E926000EEA22EF50146E156AD950020F66
:1047B000E96EDACFEAFF1450EE121550ED12020E38
:1047C000DBCF14F0030EDBCF15F0010E145C000EEE
:1047D000155801E2AAD0020EDBCF16F0030EDBCF94
:1047E00017F0D00E165C070E175801E39ED0FD0E91
:1047F000DBCF08F0FE0EDBCF09F0050E08C0DBFFB3
:10480000060E09C0DBFFFB0EDBCFE9FFFC0EDBCFA2
:10481000EAFFEE6AED6A050EDBCFE9FFDB2A060E42
:10482000DBCFEAFF01E3DB2A020EEF6EFB0EDBCFEC
:10483000E9FFFC0EDBCFEAFFEE2A000EED22020EAE
:10484000DB50070B15E0020EDBCF14F0030EDBCFBD
:1048500015F00F0B05E0D89015321432E806FBE195
:10486000010E1426000E1522040E14C0DBFF12D018
:10487000080E146E156A020EDBCF08F0030EDBCFB4
:1048800009F014C00DF015C00EF0DCEC2BF0040E96
:1048900008C0DBFF050EDBCFE9FFDB2A060EDBCF0E
:1048A000EAFF01E3DB2A040EDBCFEFFFFB0EDBCFD9
:1048B000E9FFFC0EDBCFEAFFEE2A000EED22020E2E
:1048C000DBCFE6FF030EDBCFE6FFDECFE6FFDDCF7B
:1048D000E6FF050EDBCFE6FF060EDBCFE6FFC9ECF9
:1048E0001CF0146E060EE15E1450E76E080EE7CF62
:1048F000DBFFDB500BE0080EDBCFE6FF62EC20F0C5
:10490000E552E76E070EE7CFDBFF0ED0040EDB505B
:10491000146E156AFB0EDBCFE9FFFC0EDBCFEAFF5E
:104920001450EE261550ED2205D0030EF36E070E3F
:10493000F3CFDBFF05D0030EF36E070EF3CFDBFFE3
:10494000070EDB50146E090EE15C03E200D0E16A51
:0E495000E552E16E1450E552E7CFD9FF120098
:02495E00D9CFAF
:10496000E6FFE1CFD9FF0A0EE126060EDB6AFB0E59
:10497000DBCFE9FFFC0EDBCFEAFF050EEE1801E10D
:10498000ED5001E004D1010EE76EFD0EDBCFE9FF33
:10499000FE0EDBCFEAFFE750E926000EEA22EF50D9
:1049A000DE6EDD6AD9CFE9FFDACFEAFFEE50ED6EB9
:1049B000EF6A020EE76EFD0EDBCFE9FFFE0EDBCFE6
:1049C000EAFFE750E926000EEA22EF50DF12DF2A65
:1049D000010E01E3DB2A030EE76EFD0EDBCFE9FFDC
:1049E000FE0EDBCFEAFFE750E926000EEA22EF5089
:1049F000E66ED950020FE96EDACFEAFFE552E750D2
:104A0000EE6EED6AD950020FE96EDACFEAFFEE5092
:104A1000ED6EEF6A040EE76EFD0EDBCFE9FFFE0ED2
:104A2000DBCFEAFFE750E926000EEA22EF50146ED2
:104A3000156AD950020FE96EDACFEAFF1450EE1270
:104A40001550ED12020EDBCF14F0030EDBCF15F084
:104A5000010E145C000E155801E293D0020EDBCF5C
:104A600016F0030EDBCF17F07D0E165C000E175804
:104A700001E387D0FD0EDBCF08F0FE0EDBCF09F09F
:104A8000040E08C0DBFF050E09C0DBFFFB0EDBCF09
:104A9000E9FFFC0EDBCFEAFFEE6AED6A040EDBCF26
:104AA000E9FFDB2A050EDBCFEAFF01E3DB2A040E78
:104AB000EF6EFB0EDBCFE9FFFC0EDBCFEAFFEE2A49
:104AC000000EED22020E086E096ADBCF0DF0030E18
:104AD000DBCF0EF04EEC2BF00650E66E040EDBCF73
:104AE000E9FFDB2A050EDBCFEAFF01E3DB2AE55213
:104AF000E750EF6EFB0EDBCFE9FFFC0EDBCFEAFFEA
:104B0000EE2A000EED22020EDBCFE6FF030EDBCF16
:104B1000E6FFDECFE6FFDDCFE6FF040EDBCFE6FFEC
:104B2000050EDBCFE6FF89EC1BF0146E060EE15E8E
:104B30001450E76E070EE7CFDBFFDB500BE0070EEC
:104B4000DBCFE6FF62EC20F0E552E76E060EE7CF22
:104B5000DBFF16D0020EDBCF14F0030EDBCF15F017
:104B6000010ED89014361536E806FBE1FB0EDBCFBC
:104B7000E9FFFC0EDBCFEAFF1450EE261550ED22C4
:104B800005D0030EF36E060EF3CFDBFF05D0030E48
:104B9000F36E060EF3CFDBFF060EDB50146E0A0E2B
:104BA000E15C03E200D0E16AE552E16E1450E552A7
:064BB000E7CFD9FF12005F
:0A4BB60000C1814001C0804101C030
:104BC000804100C1814001C0804100C1814000C1DD
:104BD000814001C0804101C0804100C1814000C1CD
:104BE000814001C0804100C1814001C0804101C0BD
:104BF000804100C1814001C0804100C1814000C1AD
:104C0000814001C0804100C1814001C0804101C09C
:104C1000804100C1814000C1814001C0804101C08C
:104C2000804100C1814001C0804100C1814000C17C
:104C3000814001C0804101C0804100C1814000C16C
:104C4000814001C0804100C1814001C0804101C05C
:104C5000804100C1814000C1814001C0804101C04C
:104C6000804100C1814001C0804100C1814000C13C
:104C7000814001C0804100C1814001C0804101C02C
:104C8000804100C1814001C0804100C1814000C11C
:104C9000814001C0804101C0804100C1814000C10C
:104CA000814001C0804100C1814001C0804101C0FC
:104CB000804100C1814000C0C101C30302C2C606D9
:104CC00007C705C5C404CC0C0DCD0FCFCE0E0ACA44
:104CD000CB0BC90908C8D81819D91BDBDA1A1EDE94
:104CE000DF1FDD1D1CDC14D4D515D71716D6D21244
:104CF00013D311D1D010F03031F133F3F23236F654
:104D0000F737F53534F43CFCFD3DFF3F3EFEFA3A03
:104D10003BFB39F9F83828E8E929EB2B2AEAEE2E93
:104D20002FEF2DEDEC2CE42425E527E7E62622E203
:104D3000E323E12120E0A06061A163A3A26266A653
:104D4000A767A56564A46CACAD6DAF6F6EAEAA6AC3
:104D50006BAB69A9A86878B8B979BB7B7ABABE7E13
:104D60007FBF7DBDBC7CB47475B577B7B67672B2C3
:104D7000B373B17170B05090915193535292965653
:104D80005797559594549C5C5D9D5F9F9E5E5A9A83
:104D90009B5B99595898884849894B8B8A4A4E8E13
:104DA0008F4F8D4D4C8C4484854587474686824283
:064DB000438341818040B5
:0A4DB600D9CFE6FFE1CFD9FF080EC8
:104DC000E126DE6A900EDE6ED00EDE6E030EDD6E24
:104DD000DD52DD52DECF07F0DECF08F0DECF09F086
:104DE000DDCF0AF0DD52DD52075007E1240E08182E
:104DF00004E1F40E091801E10A501DE0075008E132
:104E0000480E081805E1E80E091802E1010E0A181B
:104E10000EE0075008E1900E081805E1D00E0918C1
:104E200002E1030E0A1801E000D09B8C08D0600E4E
:104E3000D36E9B8C04D0700ED36E9B9C00D0D9CFC8
:104E4000E9FFDACFEAFFEECF14F0EECF15F0EECFA8
:104E500016F0EFCF17F0020ED89017321632153237
:104E60001432E806F9E1040E14C0DBFF050E15C08C
:104E7000DBFF060E16C0DBFF070E17C0DBFFD950A5
:104E8000040FE96EDACFEAFFE80E0B6E030E0C6E2C
:104E90000D6A0E6AEECF06F0EECF07F0EECF08F007
:104EA000EFCF09F00BEC2BF009C0EDFF08C0EDFFD0
:104EB00007C0EDFF06C0EFFF17681868196A040EF7
:104EC000DBCF1AF0050EDBCF1BF01C6A1A50175C03
:104ED000146E1B501858156E1C501958166E14C0BD
:104EE000C4F215C0C5F2C26A0F01386B396B3A6B58
:104EF0003B6B3C6B949096948494949C948E969483
:104F00008484956A936A816A92908090929280924A
:104F1000929480949296809692988098929A809A91
:104F200096908490080EE15C02E2E16AE552E16E3F
:084F3000E552E7CFD9FF1200A2
:084F3800D9CFE6FFE1CFD9FF5C
:104F4000E652DF6A020EE76EF90EDBCF14F0FA0EBE
:104F5000DBCF15F0E7501426000E1522200E145C4E
:104F6000000E15585AE20201AC6BAD6BACC2E9FF02
:104F7000ADC2EAFFAC2B000EAD238C0EE926020E6B
:104F8000EA22FE0EDBCFEFFFFD0EDB5002E0FF0E4C
:104F900001D0000EE66EACC2E9FFADC2EAFFAC2B59
:104FA000000EAD238C0EE926020EEA22E552E750F0
:104FB000EF6ED950F90FE96EFF0EDA20EA6E000E9F
:104FC000D880EE54000EED5427E2F90EDBCFE6FF59
:104FD000FA0EDBCFE6FFFB0EDBCFE6FFFC0EDBCFEE
:104FE000E6FF8C0EAC25146E020EAD21156E14C0BA
:104FF000E6FF15C0E6FF09EC2AF0166E060EE15E2C
:105000001650F90EDBCF08F0FA0EDBCF09F008508E
:105010000201AC270950AD2302D0040EDF6EDF5031
:1050200000D0E552E552E7CFD9FF1200D9CFE6FF15
:10503000E1CFD9FFACC2E6FFADC2E6FF8C0EE66E53
:10504000020EE66E010EE76EFD0EDBCF14F0FE0ED3
:10505000DBCF15F0E7501426000E152214C0E6FF32
:1050600015C0E6FF09EC2AF0166E060EE15E16503A
:10507000010E0201156AAC25146EAD511522FB0E0E
:10508000DBCFE9FFFC0EDBCFEAFF14C0EEFF15C05B
:0E509000EDFF000E00D0E552E7CFD9FF120071
:02509E00D9CF68
:1050A000E6FFE1CFD9FF020EE126830EDF6EDE526E
:1050B0000C0EDD6E010EDBCFE6FFA30EE66EB7EC45
:1050C0002AF0E552E552B190B16AA282A082A19283
:1050D000FD0EDBCF31FFFE0EDBCF32FF010E146E73
:1050E000020EE15C03E200D0E16AE552E16E145089
:1050F000E552E7CFD9FF1200B19031CFE6FF32CFB2
:10510000E6FF6CEC2BF0E552E552B1801200B19055
:105110001200DACFE4FFE2CFDAFFE9CFE4FFEACF13
:10512000E4FFF6CFE4FFF7CFE4FFF5CFE4FFF3CFE2
:10513000E4FFF4CFE4FFFACFE4FFFBCFE4FF00EE9F
:1051400000F0140EE80403E3EECFE4FFFBD700EE1B
:1051500014F00A0EE80403E3EECFE4FFFBD7E652B7
:10516000A19207D019CFFBFF18CFFAFF0F011751FB
:10517000F96EF8DFE55200EE1DF00A0EE80403E3D5
:10518000E5CFEDFFFBD700EE13F0140EE80403E3C8
:10519000E5CFEDFFFBD7E5CFFBFFE5CFFAFFE5CF8E
:1051A000F4FFE5CFF3FFE5CFF5FFE5CFF7FFE5CF60
:1051B000F6FFE5CFEAFFE5CFE9FFE5CFDAFF110023
:1051C000D9CFE6FFE1CFD9FF060EE126DF68010E59
:1051D000DB68020EDB6A030EDB6AFB0EDBCF14F02A
:1051E000DB06FC0EDBCF15F001E2DB0614501510D8
:1051F00038E0010EDBCFE6FFFD0EDBCFE9FFDB2A57
:10520000FE0EDBCFEAFF01E3DB2AEF50E552E718A1
:10521000E66ED950040FE96EDACFEAFFE552E750A7
:10522000EE6EED6A040EDBCFF6FF050EDBCFF7FF67
:10523000B60EF6264B0EF7220800F550DF18E76E83
:10524000010EE7CFDBFF040EDBCFF6FF050EDBCF51
:10525000F7FFB60EF6264C0EF7220800F550DF6E6B
:10526000BCD7DFCF14F014C015F0146A020E14C0BE
:10527000DBFF030E15C0DBFF010EDB50146E156A59
:10528000D950020FE96EDACFEAFF1450EE12155032
:10529000ED12020EDBCF14F0030EDBCF15F014C0BD
:1052A000F3FF15C0F4FF060EE15C03E200D0E16AF3
:0C52B000E552E16EE552E7CFD9FF120095
:0452BC00D9CFE6FF61
:1052C000E1CFD9FF040EE126DBEC26F0000EE66EFE
:1052D000E66AC4C2E6FFC5C2E6FF9DEC21F0E552D6
:1052E000E552E552E552FE0EE66E170EE66EEF0E43
:1052F000E66ED80EE66EC0EC21F0E552E552E552BE
:10530000E552AAEC1AF019EC00F0F40EDE6E010E74
:10531000DE6EDE6ADD6ADD52DD52D9CFE9FFDACF1B
:10532000EAFFEE500201BA5DEE50BB59EE50BC5997
:10533000EE50BD5907E313EC2CF00201BA6BBB6BC6
:10534000BC6BBD6B0201190EC25D000EC35905E3B3
:105350002FEC08F00201C26BC36B0EEC17F0DDD727
:10536000040EE15C02E2E16AE552E16EE552E7CF4C
:04537000D9FF12004F
:0C5374003A0EF66E000EF76E000EF86E9A
:105380000F010900F5502C6F0900F5502D6F03E156
:105390002C6701D03DD00900F550276F0900F5506A
:1053A000286F0900F550296F09000900F550E96ED2
:1053B0000900F550EA6E090009000900F5502A6F4E
:1053C0000900F5502B6F09000900F6CF2EFFF7CF2B
:1053D0002FFFF8CF30FF27CFF6FF28CFF7FF29CFD9
:1053E000F8FF0F012A5302E12B5307E00900F550A3
:1053F000EE6E2A07F8E22B07F9D72ECFF6FF2FCF54
:10540000F7FF30CFF8FF0F012C07000E2D5BBFD741
:02541000120088
:0E541200D9CFE6FFDACFE6FFFA0EE3CFD9FFDF
:10542000FB0EE3CFDAFFFC0EE3CFE9FFFD0EE3CF87
:10543000EAFFE9CFF3FFEACFF4FFF80EE35003E110
:10544000F90EE35008E0F80EE30602E2F90EE30677
:10545000DECFEEFFF2D7FF0EE3CFDAFFE552FF0E0D
:10546000E3CFD9FFE5521200FE0EE3CFE9FFFF0EB6
:10547000E3CFEAFFE9CFF3FFEACFF4FFFB0EE350FF
:1054800003E1FC0EE35009E0FB0EE30602E2FC0E32
:0C549000E306FD0EE350EE6EF1D71200B3
:04549C00D9CFE6FF7F
:1054A000DACFE6FFE1CFD9FFE2CFDAFFAC6AAB6A31
:1054B000FD0EDBB0AC88DBA202D0AC8CAB8CDBB4D5
:1054C000AC8EDBA602D0AB8801D0AB8ADBB8AC8453
:1054D000DBBAAB86DBAC02D09D8A01D09D9ADBAEF5
:1054E00002D09D8801D09D98FB0EDB50AF6EFC0E64
:1054F000DBCF15F015C014F0156A1450B06EAC8AED
:0E550000AB8EE552E5CFDAFFE7CFD9FF120000
:02550E000F018B
:10551000346B010E00D01200D9CFE6FFE1CFD9FFE6
:105520000F01010E346FFE0EDBCF33FF010E00D0F2
:10553000E552E7CFD9FF1200D9CFE6FFE1CFD9FF7F
:10554000E652DF6A0F0134510BE0FD0EDBCFE9FFBD
:10555000FE0EDBCFEAFF33CFEFFF346B010EDF6EC1
:0E556000DF5000D0E552E552E7CFD9FF120030
:02556E00D9CF93
:10557000E6FFDACFE6FFE1CFD9FFE2CFDAFFFC0E9C
:10558000DB50F30BB46EFD0EDB507F0BE824B16EE5
:10559000B36AB26AA192A492FD0EDBAE02D0A082E1
:1055A00001D0A092FC0EDBA402D0A38201D0A39272
:1055B000B4BEB486B180E552E5CFDAFFE7CFD9FFBC
:0255C0001200D7
:0E55C200D9CFE6FFDACFE6FFE1CFD9FFE2CF87
:1055D000DAFFFC0EDB50F30BCC6EFD0EDB507F0BC5
:1055E000E824CD6ECF6ACE6A9E90FD0EDBAE02D06F
:1055F0009D8001D09D90A490FC0EDBA402D0A380DE
:1056000001D0A390CCBECC86CD80E552E5CFDAFFA9
:06561000E7CFD9FF1200F4
:0A561600056A046A036A026A200EA6
:10562000E76ED89006360736083609360236033656
:10563000043605360B50025C0C5003580D500458CC
:105640000E50055809E30B50025E0C50035A0D50E2
:0E565000045A0E50055A062AE72EE4D712001F
:02565E00D9CFA2
:10566000E6FFDACFE6FFE1CFD9FFE2CFDAFFE6527D
:10567000F20E0F013717ABAC03D03791ABB03781C7
:10568000ABB43785ABB23787AE50DF6EDF50E55233
:0C569000E552E5CFDAFFE7CFD9FF1200AA
:04569C0008C012F040
:1056A00008500D02F4CF07F0F3CF06F009500E02B8
:1056B000F4CF09F0F3CF08F00D02F3500726F450B1
:1056C0000822E86A092212500E02F3500726F4500D
:0856D0000822E86A0922000C1F
:0856D800D9CFE6FFDACFE6FFAF
:1056E000E1CFD9FFE2CFDAFFE652E652FC0EDBCF84
:1056F000DEFFDBCFDDFF010EDB50B36EDF50B26E9D
:10570000E552E552E552E5CFDAFFE7CFD9FF1200C7
:10571000D9CFE6FFDACFE6FFE1CFD9FFE2CFDAFF5C
:10572000E652E652FC0EDBCFDEFFDBCFDDFF010EE3
:10573000DB50CF6EDF50CE6EE552E552E552E5CF3D
:08574000DAFFE7CFD9FF1200E8
:08574800D9CFE6FFDACFE6FF3E
:10575000E1CFD9FFE2CFDAFFE652E652FC0EDBCF13
:10576000DEFFDBCFDDFF010EDB50D76EDF50D66EE4
:10577000E552E552E552E5CFDAFFE7CFD9FF120057
:10578000D9CFE6FFDACFE6FFE1CFD9FFE2CFDAFFEC
:10579000FD0EDB507F0BD56ED76AD66AF294FD0EF4
:1057A000DBAE02D0F28A01D0F29AD58EE552E5CF77
:0857B000DAFFE7CFD9FF120078
:0857B800056A046A100EE76E99
:1057C000D89008360936043605360D50045C0E5064
:1057D000055805E30D50045E0E50055A082AE72EC1
:0457E000F0D71200EC
:0C57E400380EF36E00EE00F00F0E01D83E
:1057F0001200EA6002D0EE6AFCD7F350E9601200B2
:04580000EE6AFCD779
:0C58040010EE60F020EE60F0F86A019CED
:10581000BAEC29F003EC00F05EEC29F0FBD71200A3
:105820000201C76B12000201C70503E1C76B82903A
:0A58300003D0010EC76F8280120042
:06583A00FF0EE350E84EF2
:105840001200000000D000D000D0E82EFAD71200DD
:105850000000000000000000000000000000000048
:105860000000000000000000000000000000000038
:105870000000000000000000000000000000000028
:105880000000000000000000000000000000000018
:105890000000000000000000000000000000000008
:1058A00000000000000000000000000000000000F8
:1058B00000000000000000000000000000000000E8
:1058C00000000000000000000000000000000000D8
:1058D00000000000000000000000000000000000C8
:1058E00000000000000000000000000000000000B8
:1058F00000000000000000000000000000000000A8
:06590000000000000000A1
:0A5906000000000000000000000097
:105910000000000000000000000000000000000087
:105920000000000000000000000000000000000077
:10593000000000003031204944454F4E4943532078
:105940004944454153202620454C454354524F4E2F
:0B595000494353205355424852410088
:05595B00000000000047
:105960000000000000000000000000000000000037
:015970000036
:02597100000034
:0D59730002112C5000045E490003FC1D00D1
:10598000100E1C00061E1B00173E2000012C2400D8
:10599000059E26000F10280002EE460000000000C1
:1059A00000000000000000000000000000000000F7
:0459B00000000000F3
:0159B40000F2
:0259B5000000F0
:020000040030CA
:0100010032CC
:0100020001FC
:0100030024D8
:01000500BD3D
:0100060000F9
:010008000FE8
:01000900C036
:01000A000FE6
:01000B00E014
:01000C000FE4
:01000D0040B2
:00000001FF
